:100000000A168A11DF2B83160313871507160C3087
:100010009300831203139415141194101410941365
:10002000141394160800831203130511851518285C
:10003000071C1B281C28182893289328871C212874
:100040002228732800300A168A1156240A128A11AF
:10005000831203132108BC00BD01BE01BF013F088C
:10006000B9003E08B8003D08B7003C08B6000230B1
:10007000C0004008BA000A128A156E250A128A11B9
:100080000030F3000030F2002730F1001030F000B3
:100090000A168A11AB250A128A1101300A168A1132
:1000A00056240A128A1120300A168A1105240A12CF
:1000B0008A1100300A168A1156240A128A11203039
:1000C0000A168A1105240A128A110030F300003042
:1000D000F2002730F1001030F0000A168A11AB252B
:1000E0000A128A1173288312031387187828792833
:1000F00093287B287B28871C7E287F287B288028C4
:10010000173021020318852886288B280130BC006F
:100110003C08A10793280310003003180130A10008
:100120009328932893280718962897281E289828FC
:1001300000300A168A1156240A128A1183120313F8
:100140002108BC00BD01BE01BF013F08B9003E0847
:10015000B8003D08B7003C08B6000230C0004008B7
:10016000BA000A128A156E250A128A11B72883125C
:100170000313071CBC28BD28B72834293429871C41
:10018000C228C328142903300A168A1156240A12D9
:100190008A11831203132208BC00BD01BE01BF01F6
:1001A0003F08B9003E08B8003D08B7003C08B6005B
:1001B0000230C0004008BA000A128A156E250A12E1
:1001C0008A110030F3000030F2002730F1001030C7
:1001D000F0000A168A11AB250A128A1104300A1699
:1001E0008A1156240A128A1120300A168A1105240F
:1001F0000A128A1103300A168A1156240A128A1129
:1002000020300A168A1105240A128A110030F300E0
:100210000030F2002730F1001030F0000A168A1189
:10022000AB250A128A11142983120313871819297E
:100230001A2934291C291C29871C1F2920291C291B
:1002400021293B3022020318262927292C29013095
:10025000BC003C08A2073429031000300318013009
:10026000A200342934293429071837293829BF280E
:10027000392903300A168A1156240A128A11831268
:1002800003132208BC00BD01BE01BF013F08B90035
:100290003E08B8003D08B7003C08B6000230C00078
:1002A0004008BA000A128A156E250A128A115829C6
:1002B00083120313071C5D295E295829D529D529E6
:1002C000871C63296429B52906300A168A11562429
:1002D0000A128A11831203132308BC00BD01BE0158
:1002E000BF013F08B9003E08B8003D08B7003C0810
:1002F000B6000230C0004008BA000A128A156E2506
:100300000A128A110030F3000030F2002730F100A9
:100310001030F0000A168A11AB250A128A11073034
:100320000A168A1156240A128A1120300A168A11D6
:1003300005240A128A1106300A168A1156240A1256
:100340008A1120300A168A1105240A128A110030F7
:10035000F3000030F2002730F1001030F0000A16F0
:100360008A11AB250A128A11B52983120313871843
:10037000BA29BB29D529BD29BD29871CC029C12976
:10038000BD29C2293B3023020318C729C829CD291A
:100390000130BC003C08A307D52903100030031826
:1003A0000130A300D529D529D5290718D829D9295D
:1003B0006029DA2906300A168A1156240A128A118F
:1003C000831203132308BC00BD01BE01BF013F0817
:1003D000B9003E08B8003D08B7003C08B60002303E
:1003E000C0004008BA000A128A156E250A128A1146
:1003F000F92983120313071CFE29FF29F929742AFE
:10040000742A871C042A052A562A14300A168A11CF
:1004100056240A128A11831203132408BC00BD015A
:10042000BE01BF013F08B9003E08B8003D08B70053
:100430003C08B6000230C0004008BA000A128A1513
:100440006E250A128A110030F3000030F2002730C6
:10045000F1001030F0000A168A11AB250A128A1139
:1004600015300A168A1156240A128A1120300A16EB
:100470008A1105240A128A1114300A168A11562488
:100480000A128A1120300A168A1105240A128A11CA
:100490000030F3000030F2002730F1001030F0009F
:1004A0000A168A11AB250A128A11562A83120313DF
:1004B00087185B2A5C2A742A5E2A5E2A871C612AB6
:1004C000622A5E2A632A1F3024020318682A692AD6
:1004D0006E2A0130BC003C08A407742AA40103144E
:1004E000A40D742A742A742A0718772A782A012AF4
:1004F000792A14300A168A1156240A128A11831294
:1005000003132408BC00BD01BE01BF013F08B900B0
:100510003E08B8003D08B7003C08B6000230C000F5
:100520004008BA000A128A156E250A128A11982A02
:1005300083120313071C9D2A9E2A982A132B132B20
:10054000871CA32AA42AF52A17300A168A115624D2
:100550000A128A11831203132C08BC00BD01BE01CC
:10056000BF013F08B9003E08B8003D08B7003C088D
:10057000B6000230C0004008BA000A128A156E2583
:100580000A128A110030F3000030F2002730F10027
:100590001030F0000A168A11AB250A128A111830A1
:1005A0000A168A1156240A128A1120300A168A1154
:1005B00005240A128A1117300A168A1156240A12C3
:1005C0008A1120300A168A1105240A128A11003075
:1005D000F3000030F2002730F1001030F0000A166E
:1005E0008A11AB250A128A11F52A83120313871880
:1005F000FA2AFB2A132BFD2AFD2A871C002B012B2C
:10060000FD2A022B0C302C020318072B082B0D2B74
:100610000130BC003C08AC07132BAC010314AC0D3B
:10062000132B132B132B0718162B172BA02A182B61
:1006300017300A168A1156240A128A1183120313DC
:100640002C08BC00BD01BE01BF013F08B9003E0837
:10065000B8003D08B7003C08B6000230C0004008B2
:10066000BA000A128A156E250A128A11372B8312D4
:100670000313071C3C2B3D2B372BB42BB42B871CAF
:10068000422B432B942B1A300A168A1156240A1235
:100690008A11831203133308BC00BD01BE01BF01E0
:1006A0003F08B9003E08B8003D08B7003C08B60056
:1006B0000230C0004008BA000A128A156E250A12DC
:1006C0008A110030F3000030F2002730F1001030C2
:1006D000F0000A168A11AB250A128A111B300A167D
:1006E0008A1156240A128A1120300A168A1105240A
:1006F0000A128A111A300A168A1156240A128A110D
:1007000020300A168A1105240A128A110030F300DB
:100710000030F2002730F1001030F0000A168A1184
:10072000AB250A128A11942B831203138718992B75
:100730009A2BB42B9C2B9C2B871C9F2BA02B9C2B88
:10074000A12B643033020318A62BA72BAC2B01304E
:10075000BC003C08B307B42B031000300318013071
:10076000B300B42BB42BB42B0718B72BB82B3F2BEB
:10077000B92B1A300A168A1156240A128A118312CA
:1007800003133308BC00BD01BE01BF013F08B9001F
:100790003E08B8003D08B7003C08B6000230C00073
:1007A0004008BA000A128A156E250A128A11D82B3F
:1007B00083120313071CDD2BDE2BD82BF32DF32D17
:1007C000871CE32BE42BDB2D2708073A031DE92BBD
:1007D000EA2B292C1F300A168A1156240A128A1174
:1007E00011300A168A1180250A128A110030F3008E
:1007F0000030F2002730F1001030F0000A168A11A4
:10080000AB250A128A111F300A168A1156240A12C1
:100810008A1120300A168A1105240A128A11203002
:100820000A168A1105240A128A1120300A168A1122
:1008300005240A128A110030F3000030F20027303C
:10084000F1001030F0000A168A11AB250A128A1145
:10085000F32D831203132708013A031D302C312C8A
:10086000702C1F300A168A1156240A128A110D3074
:100870000A168A1180250A128A110030F30000300E
:10088000F2002730F1001030F0000A168A11AB2573
:100890000A128A111F300A168A1156240A128A1166
:1008A00020300A168A1105240A128A1120300A16ED
:1008B0008A1105240A128A1120300A168A11052489
:1008C0000A128A110030F3000030F2002730F100E4
:1008D0001030F0000A168A11AB250A128A11F32D86
:1008E000831203132708023A031D772C782CB72CA8
:1008F0001F300A168A1156240A128A1105300A1668
:100900008A1180250A128A110030F3000030F200AB
:100910002730F1001030F0000A168A11AB250A12B8
:100920008A111F300A168A1156240A128A112030A1
:100930000A168A1105240A128A1120300A168A1111
:1009400005240A128A1120300A168A1105240A1277
:100950008A110030F3000030F2002730F10010302F
:10096000F0000A168A11AB250A128A11F32D8312A0
:1009700003132708033A031DBE2CBF2CFE2C1F3087
:100980000A168A1156240A128A1101300A168A118F
:1009900080250A128A110030F3000030F20027305F
:1009A000F1001030F0000A168A11AB250A128A11E4
:1009B0001F300A168A1156240A128A1120300A168C
:1009C0008A1105240A128A1120300A168A11052478
:1009D0000A128A1120300A168A1105240A128A1175
:1009E0000030F3000030F2002730F1001030F0004A
:1009F0000A168A11AB250A128A11F32D83120313EA
:100A00002708043A031D052D062D452D1F300A1613
:100A10008A1156240A128A1119300A168A11802561
:100A20000A128A110030F3000030F2002730F10082
:100A30001030F0000A168A11AB250A128A111F30F5
:100A40000A168A1156240A128A1120300A168A11AF
:100A500005240A128A1120300A168A1105240A1266
:100A60008A1120300A168A1105240A128A110030D0
:100A7000F3000030F2002730F1001030F0000A16C9
:100A80008A11AB250A128A11F32D8312031327084A
:100A9000053A031D4C2D4D2D8C2D1F300A168A1141
:100AA00056240A128A1109300A168A1180250A1260
:100AB0008A110030F3000030F2002730F1001030CE
:100AC000F0000A168A11AB250A128A111F300A1685
:100AD0008A1156240A128A1120300A168A11052416
:100AE0000A128A1120300A168A1105240A128A1164
:100AF00020300A168A1105240A128A110030F300E8
:100B00000030F2002730F1001030F0000A168A1190
:100B1000AB250A128A11F32D831203132708063A14
:100B2000031D932D942DF32D1F300A168A11562480
:100B30000A128A1115300A168A1180250A128A11A2
:100B40000030F3000030F2002730F1001030F000E8
:100B50000A168A11AB250A128A111F300A168A1149
:100B600056240A128A1120300A168A1105240A1204
:100B70008A1120300A168A1105240A128A1120309F
:100B80000A168A1105240A128A110030F300003077
:100B9000F2002730F1001030F0000A168A11AB2560
:100BA0000A128A11F32DF32DF32DF32DF32DF32DCE
:100BB000F32DF32DDB2D83120313871CE02DE12D84
:100BC000DB2DE22D07302702031CE72DE82DEC2D4D
:100BD000A7010314A70DF32D0130BC003C08A707A3
:100BE000F32DF32DF32D831203130718F82DF92D90
:100BF000E02B8718FC2DFD2DC22F2708073A031D77
:100C0000022E032E422E1F300A168A1156240A1273
:100C10008A1111300A168A1180250A128A110030B1
:100C2000F3000030F2002730F1001030F0000A1617
:100C30008A11AB250A128A111F300A168A1156240E
:100C40000A128A1120300A168A1105240A128A1102
:100C500020300A168A1105240A128A1120300A1639
:100C60008A1105240A128A110030F3000030F200C4
:100C70002730F1001030F0000A168A11AB250A1255
:100C80008A11C22F831203132708013A031D492E2C
:100C90004A2E892E1F300A168A1156240A128A11EA
:100CA0000D300A168A1180250A128A110030F300CD
:100CB0000030F2002730F1001030F0000A168A11DF
:100CC000AB250A128A111F300A168A1156240A12FD
:100CD0008A1120300A168A1105240A128A1120303E
:100CE0000A168A1105240A128A1120300A168A115E
:100CF00005240A128A110030F3000030F200273078
:100D0000F1001030F0000A168A11AB250A128A1180
:100D1000C22F831203132708023A031D902E912E2F
:100D2000D02E1F300A168A1156240A128A11053055
:100D30000A168A1180250A128A110030F300003049
:100D4000F2002730F1001030F0000A168A11AB25AE
:100D50000A128A111F300A168A1156240A128A11A1
:100D600020300A168A1105240A128A1120300A1628
:100D70008A1105240A128A1120300A168A110524C4
:100D80000A128A110030F3000030F2002730F1001F
:100D90001030F0000A168A11AB250A128A11C22FF0
:100DA000831203132708033A031DD72ED82EE52EEE
:100DB0001F300A168A1156240A128A1101300A16A7
:100DC0008A1180250A128A11C22F83120313270861
:100DD000043A031DEC2EED2E2C2F1F300A168A111B
:100DE00056240A128A1119300A168A1180250A120D
:100DF0008A110030F3000030F2002730F10010308B
:100E0000F0000A168A11AB250A128A111F300A1641
:100E10008A1156240A128A1120300A168A110524D2
:100E20000A128A1120300A168A1105240A128A1120
:100E300020300A168A1105240A128A110030F300A4
:100E40000030F2002730F1001030F0000A168A114D
:100E5000AB250A128A11C22F831203132708053A01
:100E6000031D332F342F732F1F300A168A11562477
:100E70000A128A1109300A168A1180250A128A116B
:100E80000030F3000030F2002730F1001030F000A5
:100E90000A168A11AB250A128A111F300A168A1106
:100EA00056240A128A1120300A168A1105240A12C1
:100EB0008A1120300A168A1105240A128A1120305C
:100EC0000A168A1105240A128A110030F300003034
:100ED000F2002730F1001030F0000A168A11AB251D
:100EE0000A128A11C22F831203132708063A031D20
:100EF0007A2F7B2FC22F1F300A168A1156240A120E
:100F00008A1115300A168A1180250A128A110030BA
:100F1000F3000030F2002730F1001030F0000A1624
:100F20008A11AB250A128A111F300A168A1156241B
:100F30000A128A1120300A168A1105240A128A110F
:100F400020300A168A1105240A128A1120300A1646
:100F50008A1105240A128A110030F3000030F200D1
:100F60002730F1001030F0000A168A11AB250A1262
:100F70008A11C22FC22FC22FC22FC22FC22FC22F3F
:100F8000C22FC22F83120313071CC72FC82FC22FD3
:100F9000C92F23080A128A1523200A128A118312E4
:100FA000031322080A168A1117260A128A118312BD
:100FB000031321080A168A11A2270A128A11831222
:100FC000031327080A168A111E240A128A11831293
:100FD000031324080A168A11AA260A128A118312F8
:100FE00003132C080A168A11F8260A128A11831292
:100FF000031333080A168A1160260A128A110800A0
:1010000008308A000408840A8207003457344534C3
:101010004434003454345534453400344634523466
:10102000493400344D344F344E3400345334553445
:101030004E3400345334413454340034543448343E
:0410400055340034EF
:10104600FC003C307C02031829282A2882280A3012
:10105600F0000030F1007C0883120313B600B701DC
:101066003608F2003708F3000A128A1547220A12D8
:101076008A15700883120313B80004300310B80DE4
:10108600FF3E031D41280A30F0000030F1007C08C5
:10109600B900BA013908F2003A08F3000A128A15B3
:1010A60083200A128A157008831203133807BB00BF
:1010B6003B08FC000310003003180130F0006830D4
:1010C6000A128A15C0220A128A1583120313B60061
:1010D6003608FB008030B6003608FB0503100030EA
:1010E60003180130F0007B087C04B6003608F100D6
:1010F60068300A128A15CF210A128A15822808003A
:101106000310003003180130F600F31F8B288C28DB
:101116009528F209F309F20A0319F30AF6010314F2
:10112600F60D9528F11F982899289F28F009F109AE
:10113600F00A0319F10A9F28710870040319A428FC
:10114600A528DB28F5010314F50DB5280130031099
:10115600F00DF10DFF3E031DAA280130F4007408BE
:10116600F507B528F11FB828B928A928BB28BB2838
:1011760071087302031DC12870087202031CC4287B
:10118600C528CC287008F2027108031CF303F30289
:10119600CC2801300310F10CF00CFF3E031DCD28C6
:1011A6000130F502031DD828D928BB28DB28DB2807
:1011B6007608031DDF28E528F209F309F20A031968
:1011C600F30AE5287308F101F1077208F001F00748
:1011D600EC2808000030FC000030FB000030FA006C
:1011E6000030F90073087204710470040319FC28B6
:1011F600FD285129FD010314FD0D0F290130F800CA
:101206000310F00DF10DF20DF30DF80B032901306B
:10121600F8007808FD070F29F31F12291329012961
:10122600152915290130F8000310F90DFA0DFB0DEB
:10123600FC0DF80B172973087702031D2C29720879
:101246007602031D2C2971087502031D2C297008CE
:101256007402031C2F29302940297008F4027108F2
:10126600031C710FF5027208031C720FF602730855
:10127600031C730FF7027914402901300310F30C95
:10128600F20CF10CF00CFF3E031D41290130FD026A
:10129600031D4E294F291529512951297C08F30090
:1012A6007B08F2007A08F1007908F0005A29080054
:1012B6000310003003180130F00068300A128A1556
:1012C600C0220A128A15FB007B0883120313B8009A
:1012D600B81F6E296F29AB2903100030031801309F
:1012E600F00038087F39FB007B08F10068300A12ED
:1012F6008A15CF210A128A15003083120313B6000D
:101306000030B70001303702F43003193602031CEF
:101316008D298E299029AB29AB290730FC007D3019
:10132600FB00FB0B9429FC0B942901308312031359
:10133600B6070318B70A0030B70701303702F43092
:1013460003193602031CA829A9299029AB29AB2920
:101356000230FB007B08F00068300A128A15C022B2
:101366000A128A15FC007C0883120313B800381F82
:10137600BD29BE29CE290230FB007B08F0003808C3
:10138600BF39FC007C08F10068300A128A15CF21AB
:101396000A128A15CE290800F3000310003003183C
:1013A600013083120313A000831603131114DB29E3
:1013B6001118DE29DF29DB29E0297308F2007207FC
:1013C600FE39831203139300E829831603131419B5
:1013D600ED29EE29E829111FF129F229002A111514
:1013E600F4291119F729F829F429F9298312031385
:1013F600A0010314A00D462A462A70088312930002
:10140600042A831603131419092A0A2A042A111F07
:101416000D2A0E2A1C2A1115102A1119132A142A0C
:10142600102A152A83120313A0010314A00D462ABD
:10143600462A710883129300202A8316031314196F
:10144600252A262A202A111F292A2A2A382A11154E
:101456002C2A11192F2A302A2C2A312A83120313F7
:10146600A0010314A00D462A462A11153A2A11197D
:101476003D2A3E2A3A2A3F2A03100030031801303B
:1014860083120313A0000800031000300318013074
:10149600F600F11F4F2A502A592AF009F109F00ADD
:1014A6000319F10AF6010314F60D592AF31F5C2AF3
:1014B6005D2A662AF209F309F20A0319F30A0130D2
:1014C600F4007408F6060030F7000030F8007108E2
:1014D600700403196F2A702AAE2AF5010314F50D5C
:1014E600802A01300310F00DF10DFF3E031D752A11
:1014F6000130F4007408F507802AF11F832A842A34
:10150600742A862A862A01300310F70DF80DFF3E4D
:10151600031D872A71087302031D932A700872023D
:10152600031C962A972A9F2A7008F2027108031C48
:10153600F303F30277149F2A01300310F10CF00C29
:10154600FF3E031DA02A0130F502031DAB2AAC2A7B
:10155600862AAE2AAE2A7608031DB22AB82AF709C9
:10156600F809F70A0319F80AB82A7808F101F10709
:101576007708F001F007BF2A0800FA0003100030D0
:101586000318013083120313A000831603131114EA
:10159600CC2A1118CF2AD02ACC2AD12A7A08F100CF
:1015A6007107FE39831203139300D92A8316031396
:1015B6001419DE2ADF2AD92A111FE22AE32AF22A7F
:1015C6001115E52A1119E82AE92AE52AEA2A8312D9
:1015D6000313A0010314A00D0030982B982B70085C
:1015E60083129300F62A831603131419FB2AFC2A86
:1015F600F62A111FFF2A002B0F2B1115022B11198A
:10160600052B062B022B072B83120313A0010314B1
:10161600A00D0030982B982B9114112B9118142B98
:10162600152B112B162B03147A0D8312031393001B
:101636001C2B831603131419212B222B1C2B111F71
:10164600252B262B352B1115282B11192B2B2C2B43
:10165600282B2D2B83120313A0010314A00D003099
:10166600982B982B91150030F8000030F7002730A2
:10167600F6001030F500722B0130F1000030F20058
:101686000030F3000030F4007108F5027208031C04
:10169600720F4E2B4F2BF6027308031C730F542B3D
:1016A600552BF7027408031C740F5A2B5B2BF80298
:1016B6007808770476047504031D622B632B722B5E
:1016C6001115652B1119682B692B652B6A2B831253
:1016D6000313A0010314A00D0030982B982B83163A
:1016E6000313141C772B782B3F2B792B83120313B0
:1016F6001308F1007108F9008316031391161116E9
:10170600842B111A872B882B842B11158A2B1119E0
:101716008D2B8E2B8A2B8F2B031000300318013054
:1017260083120313A0007908982B08008312031371
:10173600051585110718A02BA12BA72B0A128A11B4
:1017460013200A128A15992B0A168A1157250A128E
:101756008A1583120313C1004108A3000A168A11D1
:1017660094240A128A1583120313C1004108A200A9
:101776000A168A112F250A128A1583120313C1002D
:101786004108A1000A168A11D3230A128A15831268
:101796000313C1004108A7000A168A11BA240A12C7
:1017A6008A1583120313C1004108A4000A168A1180
:1017B600E1240A128A1583120313C1004108AC0002
:1017C6000A168A1108250A128A1583120313C10004
:1017D6004108B30000300A168A1156240A128A15E7
:1017E600831203132108C100C201C301C4014408C6
:1017F600B9004308B8004208B7004108B6000230F5
:10180600C5004508BA000A128A156E250A128A15FD
:1018160002300A168A1156240A128A153A300A1616
:101826008A1105240A128A1503300A168A115624CB
:101836000A128A15831203132208C100C201C301CA
:10184600C4014408B9004308B8004208B70041087B
:10185600B6000230C5004508BA000A128A156E2580
:101866000A128A1505300A168A1156240A128A1592
:101876003A300A168A1105240A128A1506300A1603
:101886008A1156240A128A15831203132308C100EB
:10189600C201C301C4014408B9004308B8004208A4
:1018A600B7004108B6000230C5004508BA000A1262
:1018B6008A156E250A128A15831203132708073A1A
:1018C600031D662C672C742C1F300A168A115624A9
:1018D6000A128A1511300A168A1180250A128A15EB
:1018E600F82C831203132708013A031D7B2C7C2C4A
:1018F600892C1F300A168A1156240A128A150D30B1
:101906000A168A1180250A128A15F82C83120313E7
:101916002708023A031D902C912C9E2C1F300A1684
:101926008A1156240A128A1505300A168A1180254C
:101936000A128A15F82C831203132708033A031D8B
:10194600A52CA62CB32C1F300A168A1156240A126F
:101956008A1501300A168A1180250A128A15F82C72
:10196600831203132708043A031DBA2CBB2CC82C78
:101976001F300A168A1156240A128A1519300A16B9
:101986008A1180250A128A15F82C83120313270858
:10199600053A031DCF2CD02CDD2C1F300A168A11D8
:1019A60056240A128A1509300A168A1180250A1247
:1019B6008A15F82C831203132708063A031DE42C14
:1019C600E52CF82C1F300A168A1156240A128A159D
:1019D60015300A168A1180250A128A15F82CF82C59
:1019E600F82CF82CF82CF82CF82C14300A168A113E
:1019F60056240A128A15831203132408C100C20151
:101A0600C301C4014408B9004308B8004208B7003E
:101A16004108B6000230C5004508BA000A128A1508
:101A26006E250A128A1516300A168A1156240A12CB
:101A36008A152F300A168A1105240A128A151730BC
:101A46000A168A1156240A128A15831203132C08C1
:101A5600C100C201C301C4014408B9004308B8006B
:101A66004208B7004108B6000230C5004508BA0072
:101A76000A128A156E250A128A1519300A168A1153
:101A860056240A128A152F300A168A1105240A12BC
:101A96008A151A300A168A1156240A128A158312D2
:101AA60003133308C100C201C301C4014408B900CD
:101AB6004308B8004208B7004108B6000230C50026
:101AC6004508BA000A128A156E250A128A15992B3C
:101AD600992B992B08000A30831203133A02031C30
:101AE600752D762DB22D5430F3000B30F200E43014
:101AF600F1000030F0003908F7003808F600370822
:101B0600F5003608F4000A168A1146270A128A15C5
:101B1600730883120313B9007208B8007108B7007E
:101B26007008B6003B30F3009A30F200CA30F1007C
:101B36000030F0003908F7003808F6003708F500DD
:101B46003608F4000A128A15ED200A128A15700862
:101B5600303E0A168A1105240A128A15B22D09305A
:101B6600831203133A02031CB92DBA2DF62D3B300E
:101B7600F3009A30F200CA30F1000030F000390864
:101B8600F7003808F6003708F5003608F4000A169C
:101B96008A1146270A128A15730883120313B9009D
:101BA6007208B8007108B7007008B6000530F30077
:101BB600F530F200E130F1000030F0003908F700AE
:101BC6003808F6003708F5003608F4000A128A15B8
:101BD600ED200A128A157008303E0A168A1105246D
:101BE6000A128A15F62D0830831203133A02031CD3
:101BF600FD2DFE2D3A2E0530F300F530F200E130D2
:101C0600F1000030F0003908F7003808F600370810
:101C1600F5003608F4000A168A1146270A128A15B4
:101C2600730883120313B9007208B8007108B7006D
:101C36007008B6000030F3009830F2009630F100DC
:101C46008030F0003908F7003808F6003708F5004C
:101C56003608F4000A128A15ED200A128A15700851
:101C6600303E0A168A1105240A128A153A2E0730C2
:101C7600831203133A02031C412E422E7E2E00309D
:101C8600F3009830F2009630F1008030F000390809
:101C9600F7003808F6003708F5003608F4000A168B
:101CA6008A1146270A128A15730883120313B9008C
:101CB6007208B8007108B7007008B6000030F3006B
:101CC6000F30F2004230F1004030F0003908F700E2
:101CD6003808F6003708F5003608F4000A128A15A7
:101CE600ED200A128A157008303E0A168A1105245C
:101CF6000A128A157E2E0630831203133A02031C3B
:101D0600852E862EC22E0030F3000F30F2004230B0
:101D1600F1004030F0003908F7003808F6003708BF
:101D2600F5003608F4000A168A1146270A128A15A3
:101D3600730883120313B9007208B8007108B7005C
:101D46007008B6000030F3000130F2008630F10072
:101D5600A030F0003908F7003808F6003708F5001B
:101D66003608F4000A128A15ED200A128A15700840
:101D7600303E0A168A1105240A128A15C22E05302B
:101D8600831203133A02031CC92ECA2E062F0030F3
:101D9600F3000130F2008630F100A030F00039087F
:101DA600F7003808F6003708F5003608F4000A167A
:101DB6008A1146270A128A15730883120313B9007B
:101DC6007208B8007108B7007008B6000030F3005A
:101DD6000030F2002730F1001030F0003908F7002B
:101DE6003808F6003708F5003608F4000A128A1596
:101DF600ED200A128A157008303E0A168A1105244B
:101E06000A128A15062F0430831203133A02031CA2
:101E16000D2F0E2F4A2F0030F3000030F20027302E
:101E2600F1001030F0003908F7003808F6003708DE
:101E3600F5003608F4000A168A1146270A128A1592
:101E4600730883120313B9007208B8007108B7004B
:101E56007008B6000030F3000030F2000330F100E5
:101E6600E830F0003908F7003808F6003708F500C2
:101E76003608F4000A128A15ED200A128A1570082F
:101E8600303E0A168A1105240A128A154A2F033093
:101E9600831203133A02031C512F522F8E2F003048
:101EA600F3000030F2000330F100E830F0003908AA
:101EB600F7003808F6003708F5003608F4000A1669
:101EC6008A1146270A128A15730883120313B9006A
:101ED6007208B8007108B7007008B6000030F30049
:101EE6000030F2000030F1006430F0003908F700ED
:101EF6003808F6003708F5003608F4000A128A1585
:101F0600ED200A128A157008303E0A168A11052439
:101F16000A128A158E2F0230831203133A02031C0B
:101F2600952F962FD22F0030F3000030F2000030AC
:101F3600F1006430F0003908F7003808F600370879
:101F4600F5003608F4000A168A1146270A128A1581
:101F5600730883120313B9007208B8007108B7003A
:101F66007008B6000030F3000030F2000030F100D7
:101F76000A30F0003908F7003808F6003708F5008F
:101F86003608F4000A128A15ED200A128A1570081E
:101F9600303E0A168A1105240A128A15D22F831298
:101FA60003133A08031DD82FFF2F0030F30000302B
:101FB600F2000030F1000A30F0003908F700380866
:101FC600F6003708F5003608F4000A168A11462787
:101FD6000A128A15730883120313B9007208B8002F
:101FE6007108B7007008B6003608303E0A168A1126
:0A1FF60005240A128A15FF2F0800C7
:1027960064008001840A0406031900340406CC2B65
:1027A6000330FB007B08F00068300A128A15C0224D
:1027B6000A168A11DE2B0800831320308400363077
:1027C6000A168A11CB230A168A1183010A168A1160
:1027D600DB2DF800831203130510780886000030FD
:1027E600F3000030F2000130F1002C30F0000A1640
:1027F6008A11AB250A168A110A168A1173240A163B
:102806008A110800F800831203130514780886005D
:102816000030F3000030F2000130F1002C30F000FF
:102826000A168A11AB250A168A110A168A1173240A
:102836000A168A110800F6007608031D232C382C88
:10284600083076020318282C292C382C0330F40083
:102856007408F0007608F5007508F10068300A1271
:102866008A15CF210A168A11382C0800F3000310A6
:10287600003003180130F200402C731C432C442C0A
:10288600492C7008F1007108F207492C0310F00D6D
:102896000310F30CF308031D512C522C402C532C1F
:1028A6007208552C0800FA0010307A0203185C2CC6
:1028B6005D2C652C7A08803E0A168A11EC230A16CE
:1028C6008A11722C7A08EC3EF9007908FA007A0827
:1028D600C03E0A168A11EC230A168A11722C0800C9
:1028E6008312031385140030F3000030F200013028
:1028F600F1002C30F0000A168A11AB250A168A114F
:102906008312031385100030F3000030F20001300B
:10291600F1002C30F0000A168A11AB250A168A112E
:102926000800F0010314F00D68300A128A15C0225F
:102936000A168A11FB007B0883120313B6000F30B8
:102946003605FB000A30FC007C08F0003608FD0066
:1029560004300310FD0CFF3E031DAC2C7D080A1647
:102966008A1139240A168A117B07B92C080004300B
:10297600FB007B08F00068300A128A15C0220A168E
:102986008A11FC007C0883120313B6000F3036054B
:10299600FB000A30FC007C08F0003608FD0004301D
:1029A6000310FD0CFF3E031DD32C7D080A168A1169
:1029B60039240A168A117B07E02C08000530FB0033
:1029C6007B08F00068300A128A15C0220A168A119E
:1029D600FC007C0883120313B6000F303605FB009B
:1029E6000A30FC007C08F0003608FD0004300310B5
:1029F600FD0CFF3E031DFA2C7D080A168A113924A8
:102A06000A168A117B07072D08000630FB007B0893
:102A1600F00068300A128A15C0220A168A11FC00D4
:102A26007C0883120313B6000F303605FB000A300C
:102A3600FC007C08F0003608FD0004300310FD0C95
:102A4600FF3E031D212D7D080A168A1139240A1618
:102A56008A117B072E2D08000230FB007B08F00050
:102A660068300A128A15C0220A168A11FC007C08F0
:102A760083120313B6000F303605FB000A30FC0044
:102A86007C08F0003608FD0004300310FD0CFF3E04
:102A9600031D482D7D0803390A168A1139240A16A2
:102AA6008A117B07562D08000310003003180130E9
:102AB600F00068300A128A15C0220A168A11FB0035
:102AC6007B0883120313B6000F303605FB000A306D
:102AD600FC007C08F0003608FD0004300310FD0CF5
:102AE600FF3E031D712D7D0807390A168A11392408
:102AF6000A168A117B077F2D0800FB0003100030A1
:102B060003180130FA00982D7B0884000A128A15F2
:102B160000200A168A110A168A1105240A168A1135
:102B26000130F9007908FB07982D7B08031D9C2DC1
:102B3600AA2D7B0884000A128A1500200A168A111B
:102B46000038031DA72DA82D872DAA2DAA2D080014
:102B56007308720471047004031DB22DB32DB52DD4
:102B6600DA2DDA2D0130F4000030F5000030F600E1
:102B76000030F7007408F0027508031C750FC42DA9
:102B8600C52DF1027608031C760FCA2DCB2DF20255
:102B96007708031C770FD02DD12DF302730872042A
:102BA60071047004031DD82DD92DB52DDA2D08001A
:102BB6000A128A1103200A168A110A128A155B2143
:102BC6000A168A110630831603139F0085018601B3
:102BD6001F308700831203138511051101300A1671
:102BE6008A11EC230A168A1102300A168A11EC237E
:102BF6000A168A1106300A168A11EC230A168A1159
:102C06000C300A168A11EC230A168A1138300A1675
:102C16008A11EC230A168A110A128A1599230A16B2
:102C26008A110A128A110028F9003C307902031829
:102C36001D2E1E2E5F2E0A30F0000030F10079089E
:102C460083120313B600B7013608F2003708F30003
:102C56000A128A1547220A168A117008831203136C
:102C6600B80004300310B80DFF3E031D352E0A30A0
:102C7600F0000030F1007908B900BA013908F20015
:102C86003A08F3000A128A1583200A168A11700878
:102C9600831203133807BB003B08F900F001031445
:102CA600F00D7908B6003608F10068300A128A1568
:102CB600CF210A168A115F2E0800F90064307902C6
:102CC6000318662E672EA92E0A30F0000030F10098
:102CD600790883120313B600B7013608F2003708E5
:102CE600F3000A128A1547220A168A1170088312FF
:102CF6000313B80004300310B80DFF3E031D7E2EEB
:102D06000A30F0000030F1007908B900BA0139083C
:102D1600F2003A08F3000A128A1583200A168A116D
:102D26007008831203133807BB003B08F90006300E
:102D3600B6003608F0007908B7003708F1006830A9
:102D46000A128A15CF210A168A11A92E0800F9003F
:102D56007908031DAF2EF72E203079020318B42E02
:102D6600B52EF72E0A30F0000030F10079088312F4
:102D76000313B600B7013608F2003708F3000A124B
:102D86008A1547220A168A11700883120313B8009F
:102D960004300310B80DFF3E031DCC2E0A30F000A0
:102DA6000030F1007908B900BA013908F2003A0892
:102DB600F3000A128A1583200A168A1170088312F4
:102DC60003133807BB003B08F9000430B600360889
:102DD600F0007908B7003708F10068300A128A1542
:102DE600CF210A168A11F72E0800F9007908031D6B
:102DF600FD2E452F0D3079020318022F032F452F84
:102E06000A30F0000030F100790883120313B6008F
:102E1600B7013608F2003708F3000A128A1547226E
:102E26000A168A11700883120313B80004300310BF
:102E3600B80DFF3E031D1A2F0A30F0000030F100D6
:102E46007908B900BA013908F2003A08F3000A1203
:102E56008A1583200A168A1170088312031338070D
:102E6600BB003B08F9000530B6003608F0007908CB
:102E7600B7003708F10068300A128A15CF210A1602
:102E86008A11452F0800730872047104700403192F
:102E96004D2F4E2F982FF9010314F90D602F013095
:102EA600F8000310F00DF10DF20DF30DF80B542F91
:102EB6000130F8007808F907602FF31F632F642F9D
:102EC600522F662F662F73087702031D742F720820
:102ED6007602031D742F71087502031D742F700886
:102EE6007402031C772F782F872F7008F40271085D
:102EF600031C710FF5027208031C720FF6027308A9
:102F0600031C730FF702872F01300310F30CF20C2A
:102F1600F10CF00CFF3E031D882F0130F902031D52
:102F2600952F962F662F982F982F7708F3007608FF
:102F3600F2007508F1007408F000A12F0800FC00EB
:102F460018307C020318A82FA92FFF2F0A30F00093
:102F56000030F1007C0883120313B600B70136086F
:102F6600F2003708F3000A128A1547220A168A1158
:102F7600700883120313B80004300310B80DFF3E27
:102F8600031DC02F0A30F0000030F1007C08B900A4
:102F9600BA013908F2003A08F3000A128A158320AA
:102FA6000A168A117008831203133807BB003B0800
:102FB600FC000230B6003608F00068300A128A15A6
:102FC600C0220A168A1183120313B7003708FB00C2
:102FD6004030B6003608FB050230B6003608F00071
:102FE6007B087C04B7003708F10068300A128A159E
:0A2FF600CF210A168A11FF2F0800F0
:02400E00323F3F
:00000001FF
