:100000004A30840052300A128A1115200A128A11CD
:100010008317703084007E300A128A1115200A126C
:100020008A1183010A128A111D2864008001840A42
:10003000040603190034040616280A168A1132240D
:100040000A128A110A128A115A210A128A110630DA
:10005000831603139F00031000300318013085003E
:10006000031000300318013086001F308700831210
:1000700003138511051101300A168A115C240A1236
:100080008A1102300A168A115C240A128A1106307B
:100090000A168A115C240A128A110C300A168A1177
:1000A0005C240A128A1138300A168A115C240A125A
:1000B0008A110A128A11A5220A128A110A128A11B9
:0200C000002816
:1000D0006508640463046204031D6F287028712896
:1000E00095280130E6000030E7000030E8000030DD
:1000F000E9006608E2026708031C670F8028812870
:10010000E3026808031C680F86288728E402690850
:10011000031C690F8C288D28E502650864046304BC
:100120006204031D9428952871280800DD003C30E6
:100130005D0203189C289D28F1280A30E600003053
:10014000E7005D088313DE00DF015E08E4005F085E
:10015000E5000A128A1134220A128A11831203134B
:100160006408E00004300310E00DFF3E031DB328D7
:100170000A30E6000030E7005D088313E100E20189
:100180006108E4006208E5000A168A11A5270A1230
:100190008A118312031364086007DD000310003026
:1001A00003180130E40068300A128A112B270A1262
:1001B0008A1183120313DC008030DE005E08DC0548
:1001C0005C0883135D04DE005E08E5000310003068
:1001D00003180130E40068300A128A11C4210A129F
:1001E0008A1108000030ED000030EC000030EB0018
:1001F0000030EA00680867046604650403190129F1
:1002000002295029E9010314E90D13290130EE00F8
:100210000310E50DE60DE70DE80DEE0B08290130A2
:10022000EE006E08E907E81F162917290629013094
:10023000EE000310EA0DEB0DEC0DED0DEE0B1929A0
:1002400068086402031D2E2967086302031D2E2916
:1002500066086202031D2E2965086102031C31290C
:10026000322941296508E1026608031C660FE20293
:100270006708031C670FE3026808031C680FE402A9
:100280006A1401300310E80CE70CE60CE50CFF3EA5
:10029000031D42290130E902031D4F295029172966
:1002A0006D08E4006C08E3006B08E2006A08E100F6
:1002B000592908000310831203130030031801307A
:1002C000E40068300A128A112B270A128A1183125D
:1002D0000313D200D21F6D296E29A329520883135C
:1002E000D5005508E5007F30D5005508E505031019
:1002F000003003180130E40068300A128A11C4216A
:100300000A128A11003083120313D3000030D40084
:1003100089290730D6007D30D500D50B8D29D60B25
:100320008D29831203130130D3070318D40A003038
:10033000D40701305402031D9F29F4305302031CDB
:10034000A229A32989290230E40068300A128A11FF
:100350002B270A128A1183120313D200521FB129CC
:10036000B229C32952088313D5005508E500BF30D0
:10037000D5005508E5050230E40068300A128A11FC
:10038000C4210A128A110800E60003100030031885
:100390000130D100831603131114CE291118D1296D
:1003A000D229CE29831203136608E7006707FE39B6
:1003B0009300DA29831603131419DF29E029DA29B7
:1003C000111FE329E429F0291115E6291119E9295A
:1003D000EA29E62983120313D1010314D10D332A2C
:1003E0008312031364089300F52983160313141969
:1003F000FA29FB29F529111FFE29FF290B2A1115BE
:10040000012A1119042A052A012A83120313D10192
:100410000314D10D332A8312031365089300102AA5
:10042000831603131419152A162A102A111F192AC4
:100430001A2A262A11151C2A11191F2A202A1C2AB9
:1004400083120313D1010314D10D332A1115282A65
:1004500011192B2A2C2A282A031083120313003087
:1004600003180130D10008000310003003180130D8
:10047000E800E71F3C2A3D2A452AE609E709E60A83
:100480000319E70AE8010314E80DE51F482A492A81
:10049000522AE409E509E40A0319E50A0130EC00EF
:1004A0006C08E8060030EA000030EB0067086604DC
:1004B00003195B2A5C2A942AE9010314E90D6B2ACB
:1004C00001300310E60DE70DFF3E031D612A0130E8
:1004D000EC006C08E907E71F6E2A6F2A602A0130DA
:1004E0000310EA0DEB0DFF3E031D702A670865023D
:1004F000031D7C2A66086402031C7F2A802A872A3F
:100500006608E4026708031CE503E5026A1401308B
:100510000310E70CE60CFF3E031D882A0130E902B8
:10052000031D932A942A6F2AE808031D982A9D2AFE
:10053000EA09EB09EA0A0319EB0A6A08E401E4078D
:100540006B08E501E507A42A0800831203130515CB
:1005500085110718AC2AAD2AB32A0A128A15192068
:100560000A128A11632C0A168A118C250A128A1122
:1005700083120313D2005208F2000A168A1166256C
:100580000A128A1183120313D2005208F0000A16CD
:100590008A1140250A128A1183120313D2005208CD
:1005A000D0000A168A1128240A128A118312031312
:1005B000D2005208CA000A168A11D1240A128A11DE
:1005C00083120313D2005208F1000A168A11F6248E
:1005D0000A128A1183120313D2005208F9000A1674
:1005E0008A111B250A128A1183120313D2005208A2
:1005F000F50000300A168A1192240A128A1102307C
:1006000083120313D2005208E0005008D300D40133
:10061000D501D6015608DF005508DE005408DD007C
:100620005308DC000A128A1165240A128A1102306A
:100630000A168A1192240A128A113A300A168A116D
:1006400042240A128A1103300A168A1192240A12CD
:100650008A11023083120313D2005208E00070089E
:10066000D300D401D501D6015608DF005508DE00BD
:100670005408DD005308DC000A128A1165240A12AE
:100680008A1105300A168A1192240A128A113A3008
:100690000A168A1142240A128A1106300A168A1191
:1006A00092240A128A11023083120313D2005208D4
:1006B000E0007208D300D401D501D6015608DF004E
:1006C0005508DE005408DD005308DC000A128A11C8
:1006D00065240A128A11831203134A08073A031D7C
:1006E000722B732B802B1F300A168A1192240A1248
:1006F0008A1119300A168A11B5250A128A11F12BAE
:100700004A08013A031D852B862B932B1F300A16AE
:100710008A1192240A128A110D300A168A11B525FF
:100720000A128A11F12B4A08023A031D982B992BC1
:10073000A62B1F300A168A1192240A128A1105303C
:100740000A168A11B5250A128A11F12B4A08033AB2
:10075000031DAB2BAC2BB92B1F300A168A11922428
:100760000A128A1109300A168A11B5250A128A114D
:10077000F12B4A08043A031DBE2BBF2BCC2B1F3094
:100780000A168A1192240A128A1111300A168A1145
:10079000B5250A128A11F12B4A08053A031DD12BFF
:1007A000D22BDF2B1F300A168A1192240A128A11CB
:1007B00001300A168A11B5250A128A11F12B4A084E
:1007C000063A031DE42BE52BF12B1F300A168A1184
:1007D00092240A128A1115300A168A11B5250A12B6
:1007E0008A1114300A168A1192240A128A110230D0
:1007F00083120313D2005208E0007108D300D40121
:10080000D501D6015608DF005508DE005408DD008A
:100810005308DC000A128A1165240A128A11163064
:100820000A168A1192240A128A112F300A168A1186
:1008300042240A128A1117300A168A1192240A12C7
:100840008A11023083120313D2005208E0007908A3
:10085000D300D401D501D6015608DF005508DE00CB
:100860005408DD005308DC000A128A1165240A12BC
:100870008A1119300A168A1192240A128A112F300D
:100880000A168A1142240A128A111A300A168A118B
:1008900092240A128A11023083120313D2005208E2
:1008A000E0007508D300D401D501D6015608DF0059
:1008B0005508DE005408DD005308DC000A128A11D6
:1008C00065240A128A11A52A08000A306002031C56
:1008D0006A2C6B2CA82C5430E8000B30E700E43075
:1008E000E6000030E5005F08E4005E08E3005D0814
:1008F000E2005C08E1000A168A1101270A128A1137
:10090000831203136408DF006308DE006208DD0061
:100910006108DC003B30E8009A30E700CA30E600AE
:100920000030E5005F08E4005E08E3005D08E200D7
:100930005C08E1000A128A11F2200A128A1183125D
:1009400003136108303E0A168A1142240A128A11E2
:100950000930831203136002031CAF2CB02CED2C62
:100960003B30E8009A30E700CA30E6000030E5008E
:100970005F08E4005E08E3005D08E2005C08E10057
:100980000A168A1101270A128A11831203136408B6
:10099000DF006308DE006208DD006108DC0005306E
:1009A000E800F530E700E130E6000030E5005F08E0
:1009B000E4005E08E3005D08E2005C08E1000A1262
:1009C0008A11F2200A128A11831203136108303E41
:1009D0000A168A1142240A128A110830831203135C
:1009E0006002031CF42CF52C322D0530E800F530A4
:1009F000E700E130E6000030E5005F08E4005E0853
:100A0000E3005D08E2005C08E1000A168A11012794
:100A10000A128A11831203136408DF006308DE00E0
:100A20006208DD006108DC000030E8009830E70073
:100A30009630E6008030E5005F08E4005E08E300E1
:100A40005D08E2005C08E1000A128A11F2200A1235
:100A50008A11831203136108303E0A168A11422458
:100A60000A128A110730831203136002031C392D06
:100A70003A2D772D0030E8009830E7009630E600F8
:100A80008030E5005F08E4005E08E3005D08E200F6
:100A90005C08E1000A168A1101270A128A118312E2
:100AA00003136408DF006308DE006208DD006108EC
:100AB000DC000030E8000F30E7004230E600403054
:100AC000E5005F08E4005E08E3005D08E2005C0802
:100AD000E1000A128A11F2200A128A11831203130A
:100AE0006108303E0A168A1142240A128A11063021
:100AF000831203136002031C7E2D7F2DBC2D00305A
:100B0000E8000F30E7004230E6004030E5005F08C3
:100B1000E4005E08E3005D08E2005C08E1000A16FC
:100B20008A1101270A128A11831203136408DF0055
:100B30006308DE006208DD006108DC000030E800C8
:100B40000130E7008630E600A030E5005F08E400F1
:100B50005E08E3005D08E2005C08E1000A128A1109
:100B6000F2200A128A11831203136108303E0A161A
:100B70008A1142240A128A1105308312031360027B
:100B8000031CC32DC42D012E0030E8000130E70006
:100B90008630E600A030E5005F08E4005E08E30070
:100BA0005D08E2005C08E1000A168A1101270A12BA
:100BB0008A11831203136408DF006308DE006208F1
:100BC000DD006108DC000030E8000030E70027307D
:100BD000E6001030E5005F08E4005E08E3005D0811
:100BE000E2005C08E1000A128A11F2200A128A115E
:100BF000831203136108303E0A168A1142240A1236
:100C00008A110430831203136002031C082E092E7C
:100C1000462E0030E8000030E7002730E6001030B4
:100C2000E5005F08E4005E08E3005D08E2005C08A0
:100C3000E1000A168A1101270A128A11831203138E
:100C40006408DF006308DE006208DD006108DC0084
:100C50000030E8000030E7000330E600E830E5004F
:100C60005F08E4005E08E3005D08E2005C08E10064
:100C70000A128A11F2200A128A11831203136108E0
:100C8000303E0A168A1142240A128A110330831256
:100C900003136002031C4D2E4E2E8B2E0030E800F5
:100CA0000030E7000330E600E830E5005F08E400CC
:100CB0005E08E3005D08E2005C08E1000A168A11A4
:100CC00001270A128A11831203136408DF006308E4
:100CD000DE006208DD006108DC000030E800003062
:100CE000E7000030E6006430E5005F08E4005E08DD
:100CF000E3005D08E2005C08E1000A128A11F220BC
:100D00000A128A11831203136108303E0A168A11EF
:100D100042240A128A110230831203136002031C58
:100D2000922E932ED02E0030E8000030E7000030E5
:100D3000E6006430E5005F08E4005E08E3005D085B
:100D4000E2005C08E1000A168A1101270A128A11E2
:100D5000831203136408DF006308DE006208DD000D
:100D60006108DC000030E8000030E7000030E600F9
:100D70000A30E5005F08E4005E08E3005D08E20079
:100D80005C08E1000A128A11F2200A128A11831209
:100D900003136108303E0A168A1142240A128A118E
:100DA0000130831203136002031CD72ED82EFF2EAE
:100DB0000030E8000030E7000030E6000A30E500CF
:100DC0005F08E4005E08E3005D08E2005C08E10003
:100DD0000A168A1101270A128A1183120313640862
:100DE000DF006308DE006208DD006108DC005C08EB
:100DF0008313303E0A168A1142240A128A1108000F
:100E0000FE00FE1F082F83137E18831700080800BA
:100E10000408FE0007308A007E088207003446344A
:100E20005234493400345434553445340034573442
:100E30004534443400344D344F344E34003454344B
:100E4000483455340034533441345434003453342A
:100E500055344E340034E5000310003003180130DF
:100E6000D100831603131114352F1118382F392F81
:100E7000352F8312031365088313EB006B07FE39CC
:100E80009300422F831603131419472F482F422F24
:100E9000111F4B2F4C2F592F11154E2F1119512F58
:100EA000522F4E2F83120313D1010314D10D0030A2
:100EB000FC2F83120313640893005E2F8316031321
:100EC0001419632F642F5E2F111F672F682F752F42
:100ED00011156A2F11196D2F6E2F6A2F83120313AC
:100EE000D1010314D10D0030FC2F9114772F9118EC
:100EF0007A2F7B2F772F031483120313650D930032
:100F0000812F831603131419862F872F812F111F0A
:100F10008A2F8B2F982F11158D2F1119902F912F0C
:100F20008D2F83120313D1010314D10D0030FC2F38
:100F30009115831203130030EA000030E9002730D6
:100F4000E8001030E700D92F013083120313EB00C3
:100F50000030EC000030ED000030EE006B08E702DE
:100F60006C08031C6C0FB52FB62FE8026D08031C2C
:100F70006D0FBB2FBC2FE9026E08031C6E0FC12F33
:100F8000C22FEA026A08690468046704031DC92FB6
:100F9000CA2FD92F831603131115CE2F1119D12F54
:100FA000D22FCE2F83120313D1010314D10D0030A1
:100FB000FC2F83160313141CDE2FDF2FA42F8312A4
:100FC00003131308E6008316031391161116E82F76
:100FD000111AEB2FEC2FE82F1115EE2F1119F12F0D
:100FE000F22FEE2F03108312031300300318013089
:0A0FF000D10066088313FC2F0800EF
:10100000DC00DC08031D0528182808305C020318E2
:101010000A280B2818285C088313DD005D08E5000A
:101020000330E40068300A128A11C4210A128A15BA
:101030000800051185151D281D28071C20282128BA
:101040001C289628871C252826287A2800300A166E
:101050008A1192240A128A15023083120313D700D0
:101060005708E0005008D800D901DA01DB015B081D
:10107000DF005A08DE005908DD005808DC000A12BB
:101080008A1165240A128A15831203130030E500C1
:101090000030E4002730E3001030E2000A128A1129
:1010A00068200A128A1501300A168A1192240A123F
:1010B0008A1520300A168A1142240A128A15003035
:1010C0000A168A1192240A128A1520300A168A11E9
:1010D00042240A128A15831203130030E5000030FF
:1010E000E4002730E3001030E2000A128A11682081
:1010F0000A128A158312031387187F2880289628DE
:1011000082288228871C852886288128173050024B
:1011100003188B288C2891280130D7005708D00756
:1011200096280310003003180130D00007189928C2
:101130009A28222800300A168A1192240A128A1547
:10114000023083120313D7005708E0005008D8007C
:10115000D901DA01DB015B08DF005A08DE0059081B
:10116000DD005808DC000A128A1165240A128A156B
:10117000BA28BA2883120313071CBF28C028B9282D
:101180003529871CC428C528192903300A168A1155
:1011900092240A128A15023083120313D7005708CB
:1011A000E0007008D800D901DA01DB015B08DF003C
:1011B0005A08DE005908DD005808DC000A128A11BE
:1011C00065240A128A15831203130030E5000030EB
:1011D000E4002730E3001030E2000A128A11682090
:1011E0000A128A1504300A168A1192240A128A15E4
:1011F00020300A168A1142240A128A1503300A1670
:101200008A1192240A128A1520300A168A11422461
:101210000A128A15831203130030E5000030E4003F
:101220002730E3001030E2000A128A1168200A1207
:101230008A158312031387181E291F29352921298E
:101240002129871C2429252920293B3070020318D5
:101250002A292B2930290130D7005708F0073529D2
:101260000310003003180130F0000718382939291D
:10127000C12803300A168A1192240A128A150230F4
:1012800083120313D7005708E0007008D800D90173
:10129000DA01DB015B08DF005A08DE005908DD00D7
:1012A0005808DC000A128A1165240A128A15592985
:1012B000592983120313071C5E295F295829D42951
:1012C000871C63296429B82906300A168A119224DA
:1012D0000A128A15023083120313D7005708E00060
:1012E0007208D800D901DA01DB015B08DF005A0877
:1012F000DE005908DD005808DC000A128A11652456
:101300000A128A15831203130030E5000030E4004E
:101310002730E3001030E2000A128A1168200A1216
:101320008A1507300A168A1192240A128A1520306B
:101330000A168A1142240A128A1506300A168A11E0
:1013400092240A128A1520300A168A1142240A129F
:101350008A15831203130030E5000030E4002730C3
:10136000E3001030E2000A128A1168200A128A157E
:10137000831203138718BD29BE29D429C029C02987
:10138000871CC329C429BF293B3072020318C9290D
:10139000CA29CF290130D7005708F207D4290310F2
:1013A000003003180130F2000718D729D829602926
:1013B00006300A168A1192240A128A150230831204
:1013C0000313D7005708E0007208D800D901DA01EA
:1013D000DB015B08DF005A08DE005908DD00580811
:1013E000DC000A128A1165240A128A15F829F829E4
:1013F00083120313071CFD29FE29F729712A871C74
:10140000022A032A572A14300A168A1192240A1231
:101410008A15023083120313D7005708E0007108C1
:10142000D800D901DA01DB015B08DF005A08DE00D1
:101430005908DD005808DC000A128A1165240A12D6
:101440008A15831203130030E5000030E4002730D2
:10145000E3001030E2000A128A1168200A128A158D
:1014600015300A168A1192240A128A1520300A169B
:101470008A1142240A128A1514300A168A119224FB
:101480000A128A1520300A168A1142240A128A1575
:10149000831203130030E5000030E4002730E3003E
:1014A0001030E2000A128A1168200A128A1583128B
:1014B000031387185C2A5D2A712A5F2A5F2A871C1A
:1014C000622A632A5E2A1F3071020318682A692A79
:1014D0006E2A0130D7005708F107712AF101031471
:1014E000F10D0718742A752AFF2914300A168A117B
:1014F00092240A128A15023083120313D700570868
:10150000E0007108D800D901DA01DB015B08DF00D7
:101510005A08DE005908DD005808DC000A128A115A
:1015200065240A128A15952A952A83120313071C2B
:101530009A2A9B2A942A0E2B871C9F2AA02AF42AD7
:1015400017300A168A1192240A128A150230831261
:101550000313D7005708E0007908D800D901DA0151
:10156000DB015B08DF005A08DE005908DD0058087F
:10157000DC000A128A1165240A128A1583120313E9
:101580000030E5000030E4002730E3001030E200D6
:101590000A128A1168200A128A1518300A168A114E
:1015A00092240A128A1520300A168A1142240A123D
:1015B0008A1517300A168A1192240A128A152030C9
:1015C0000A168A1142240A128A1583120313003064
:1015D000E5000030E4002730E3001030E2000A129A
:1015E0008A1168200A128A15831203138718F92AB0
:1015F000FA2A0E2BFC2AFC2A871CFF2A002BFB2A26
:101600000C3079020318052B062B0B2B0130D70069
:101610005708F9070E2BF9010314F90D0718112BC0
:10162000122B9C2A17300A168A1192240A128A1544
:10163000023083120313D7005708E0007908D8005E
:10164000D901DA01DB015B08DF005A08DE00590826
:10165000DD005808DC000A128A1165240A128A1576
:10166000322B322B83120313071C372B382B312BD1
:10167000AD2B871C3C2B3D2B912B1A300A168A115F
:1016800092240A128A15023083120313D7005708D6
:10169000E0007508D800D901DA01DB015B08DF0042
:1016A0005A08DE005908DD005808DC000A128A11C9
:1016B00065240A128A15831203130030E5000030F6
:1016C000E4002730E3001030E2000A128A1168209B
:1016D0000A128A151B300A168A1192240A128A15D8
:1016E00020300A168A1142240A128A151A300A1664
:1016F0008A1192240A128A1520300A168A1142246D
:101700000A128A15831203130030E5000030E4004A
:101710002730E3001030E2000A128A1168200A1212
:101720008A15831203138718962B972BAD2B992BB1
:10173000992B871C9C2B9D2B982B643075020318CA
:10174000A22BA32BA82B0130D7005708F507AD2BF0
:101750000310003003180130F5000718B02BB12B2F
:10176000392B1A300A168A1192240A128A1502306D
:1017700083120313D7005708E0007508D800D90179
:10178000DA01DB015B08DF005A08DE005908DD00E2
:101790005808DC000A128A1165240A128A15D12B16
:1017A000D12B83120313071CD62BD72BD02BEF2D55
:1017B000871CDB2BDC2BDB2D4A08073A031DE12BB2
:1017C000E22B252C1F300A168A1192240A128A1540
:1017D00019300A168A11B5250A128A1583120313C5
:1017E0000030E5000030E4002730E3001030E20074
:1017F0000A128A1168200A128A151F300A168A11E5
:1018000092240A128A1520300A168A1142240A12DA
:101810008A1520300A168A1142240A128A152030AD
:101820000A168A1142240A128A1583120313003001
:10183000E5000030E4002730E3001030E2000A1237
:101840008A1168200A128A15DA2D4A08013A031D06
:101850002A2C2B2C6E2C1F300A168A1192240A1265
:101860008A150D300A168A11B5250A128A158312B7
:1018700003130030E5000030E4002730E3001030AF
:10188000E2000A128A1168200A128A151F300A160D
:101890008A1192240A128A1520300A168A114224CB
:1018A0000A128A1520300A168A1142240A128A1551
:1018B00020300A168A1142240A128A158312031351
:1018C0000030E5000030E4002730E3001030E20093
:1018D0000A128A1168200A128A15DA2D4A08023A79
:1018E000031D732C742CB72C1F300A168A119224F6
:1018F0000A128A1505300A168A11B5250A128A15A8
:10190000831203130030E5000030E4002730E300C9
:101910001030E2000A128A1168200A128A151F305C
:101920000A168A1192240A128A1520300A168A1180
:1019300042240A128A1520300A168A1142240A12F9
:101940008A1520300A168A1142240A128A15831237
:1019500003130030E5000030E4002730E3001030CE
:10196000E2000A128A1168200A128A15DA2D4A0842
:10197000033A031DBC2CBD2C002D1F300A168A1102
:1019800092240A128A1509300A168A11B5250A12FC
:101990008A15831203130030E5000030E40027307D
:1019A000E3001030E2000A128A1168200A128A1538
:1019B0001F300A168A1192240A128A1520300A163C
:1019C0008A1142240A128A1520300A168A114224EA
:1019D0000A128A1520300A168A1142240A128A1520
:1019E000831203130030E5000030E4002730E300E9
:1019F0001030E2000A128A1168200A128A15DA2DC4
:101A00004A08043A031D052D062D492D1F300A16DC
:101A10008A1192240A128A1511300A168A11B525E4
:101A20000A128A15831203130030E5000030E40027
:101A30002730E3001030E2000A128A1168200A12EF
:101A40008A151F300A168A1192240A128A1520302C
:101A50000A168A1142240A128A1520300A168A119F
:101A600042240A128A1520300A168A1142240A12C8
:101A70008A15831203130030E5000030E40027309C
:101A8000E3001030E2000A128A1168200A128A1557
:101A9000DA2D4A08053A031D4E2D4F2D922D1F3089
:101AA0000A168A1192240A128A1501300A168A111E
:101AB000B5250A128A15831203130030E5000030A1
:101AC000E4002730E3001030E2000A128A11682097
:101AD0000A128A151F300A168A1192240A128A15D0
:101AE00020300A168A1142240A128A1520300A165A
:101AF0008A1142240A128A1520300A168A114224B9
:101B00000A128A15831203130030E5000030E40046
:101B10002730E3001030E2000A128A1168200A120E
:101B20008A15DA2D4A08063A031D972D982DDA2DCD
:101B30001F300A168A1192240A128A1515300A16C5
:101B40008A11B5250A128A15831203130030E500A5
:101B50000030E4002730E3001030E2000A128A115E
:101B600068200A128A151F300A168A1192240A1256
:101B70008A1520300A168A1142240A128A1520304A
:101B80000A168A1142240A128A1520300A168A116E
:101B900042240A128A15831203130030E500003034
:101BA000E4002730E3001030E2000A128A116820B6
:101BB0000A128A15EF2DDD2DDD2D871CE02DE12D7C
:101BC000DC2D07304A02031CE62DE72DEB2DCA0160
:101BD0000314CA0DEF2D0130D7005708CA0783122E
:101BE00003130718F42DF52DD82B8718F82DF92D90
:101BF000C12F4A08073A031DFE2DFF2D422E1F302C
:101C00000A168A1192240A128A1519300A168A11A4
:101C1000B5250A128A15831203130030E50000303F
:101C2000E4002730E3001030E2000A128A11682035
:101C30000A128A151F300A168A1192240A128A156E
:101C400020300A168A1142240A128A1520300A16F8
:101C50008A1142240A128A1520300A168A11422457
:101C60000A128A15831203130030E5000030E400E5
:101C70002730E3001030E2000A128A1168200A12AD
:101C80008A15C12F4A08013A031D472E482E8B2E74
:101C90001F300A168A1192240A128A150D300A166C
:101CA0008A11B5250A128A15831203130030E50044
:101CB0000030E4002730E3001030E2000A128A11FD
:101CC00068200A128A151F300A168A1192240A12F5
:101CD0008A1520300A168A1142240A128A152030E9
:101CE0000A168A1142240A128A1520300A168A110D
:101CF00042240A128A15831203130030E5000030D3
:101D0000E4002730E3001030E2000A128A11682054
:101D10000A128A15C12F4A08023A031D902E912EED
:101D2000D42E1F300A168A1192240A128A15053001
:101D30000A168A11B5250A128A1583120313003078
:101D4000E5000030E4002730E3001030E2000A1222
:101D50008A1168200A128A151F300A168A119224E5
:101D60000A128A1520300A168A1142240A128A158C
:101D700020300A168A1142240A128A1520300A16C7
:101D80008A1142240A128A15831203130030E500D7
:101D90000030E4002730E3001030E2000A128A111C
:101DA00068200A128A15C12F4A08033A031DD92E4A
:101DB000DA2EE72E1F300A168A1192240A128A158B
:101DC00009300A168A11B5250A128A15C12F4A0848
:101DD000043A031DEC2EED2E302F1F300A168A1107
:101DE00092240A128A1511300A168A11B5250A1290
:101DF0008A15831203130030E5000030E400273019
:101E0000E3001030E2000A128A1168200A128A15D3
:101E10001F300A168A1192240A128A1520300A16D7
:101E20008A1142240A128A1520300A168A11422485
:101E30000A128A1520300A168A1142240A128A15BB
:101E4000831203130030E5000030E4002730E30084
:101E50001030E2000A128A1168200A128A15C12F76
:101E60004A08053A031D352F362F792F1F300A16E1
:101E70008A1192240A128A1501300A168A11B52590
:101E80000A128A15831203130030E5000030E400C3
:101E90002730E3001030E2000A128A1168200A128B
:101EA0008A151F300A168A1192240A128A152030C8
:101EB0000A168A1142240A128A1520300A168A113B
:101EC00042240A128A1520300A168A1142240A1264
:101ED0008A15831203130030E5000030E400273038
:101EE000E3001030E2000A128A1168200A128A15F3
:101EF000C12F4A08063A031D7E2F7F2FC12F1F30A6
:101F00000A168A1192240A128A1515300A168A11A5
:101F1000B5250A128A15831203130030E50000303C
:101F2000E4002730E3001030E2000A128A11682032
:101F30000A128A151F300A168A1192240A128A156B
:101F400020300A168A1142240A128A1520300A16F5
:101F50008A1142240A128A1520300A168A11422454
:101F60000A128A15831203130030E5000030E400E2
:101F70002730E3001030E2000A128A1168200A12AA
:101F80008A15C32FC32F83120313071CC82FC92F11
:101F9000C22F72080A128A1196200A128A15831219
:101FA000031370080A168A1126260A128A1583124C
:101FB000031350080A168A114F270A128A15831232
:101FC00003134A080A128A1500200A128A1583127E
:101FD000031371080A168A116D260A128A158312D4
:101FE000031379080A168A11B7260A128A15831272
:101FF000031375080A168A11E0250A128A150800CB
:102850000330E40068300A128A112B270A168A1105
:10286000312C080083160313871507160C309300CC
:102870008312031394151411941014109413141349
:102880009416080083120313E100051461088313F2
:1028900086000030E5000030E4000130E3002C3019
:1028A000E2000A128A1168200A168A110A168A1191
:1028B000B0240A168A11080083120313DD000510E4
:1028C0005D08831386000030E5000030E40001302D
:1028D000E3002C30E2000A128A1168200A168A11DD
:1028E0000A168A11B0240A168A110800DB000310A8
:1028F000003003180130DC005B1C7F2C802C852C01
:102900005A088313DD005D08DC070310DA0D03109D
:10291000DB0CDB08031D8D2C8E2C7C2C5C088313B8
:10292000912C080083120313DC0010305C020318A2
:102930009A2C9B2CA42C5C088313803E0A168A11C7
:102940005C240A168A11AF2C5C088313EC3EDC0071
:102950005C08C03E0A168A115C240A168A11080017
:102960008312031385140030E5000030E4000130C9
:10297000E3002C30E2000A128A1168200A168A113C
:102980008312031385100030E5000030E4000130AD
:10299000E3002C30E2000A128A1168200A168A111C
:1029A00008000430E40068300A128A112B270A1646
:1029B0008A1183120313D7000A30DA0057088313F1
:1029C000D80004300310D80CFF3E031DE22C580839
:1029D0000A168A1176240A168A1183120313D90063
:1029E000570883130F395907F52C08000530E40008
:1029F00068300A128A112B270A168A1183120313D0
:102A0000D7000A30DA0057088313D80004300310C7
:102A1000D80CFF3E031D072D58080A168A1176248C
:102A20000A168A1183120313D900570883130F392A
:102A300059071A2D08000630E40068300A128A117E
:102A40002B270A168A1183120313D7000A30DA00E3
:102A500057088313D80004300310D80CFF3E031D21
:102A60002C2D58080A168A1176240A168A11831208
:102A70000313D900570883130F3959073F2D080056
:102A80000230E40068300A128A112B270A168A11D4
:102A900083120313D7000A30DA0057088313D800D3
:102AA00004300310D80CFF3E031D512D5808033984
:102AB0000A168A1176240A168A1183120313D90082
:102AC000570883130F395907652D0800E4010314D3
:102AD000E40D68300A128A112B270A168A11831214
:102AE0000313D7000A30DA0057088313D8000430E4
:102AF0000310D80CFF3E031D782D58080A168A11C2
:102B000076240A168A1183120313D90057088313F7
:102B10000F3959078B2D08000310003003180130BE
:102B2000E40068300A128A112B270A168A118312D0
:102B30000313D7000A30DA0057088313D800043093
:102B40000310D80CFF3E031DA02D580807390A16A4
:102B50008A1176240A168A1183120313D9005708A2
:102B600083130F395907B42D080083120313DD00B6
:102B70000310003003180130DC00CF2D5D080A126D
:102B80008A1109270A168A110A168A1142240A167E
:102B90008A11013083120313DE005E08DD07DD08B1
:102BA000031DD32DDF2D5D0883130A128A11092717
:102BB0000A168A110038031DDE2DDF2DBE2D0800F8
:102BC000DC0064305C020318E62DE72D252E0A3068
:102BD000E6000030E7005C088313DD00DE015D08DD
:102BE000E4005E08E5000A128A1134220A168A11EE
:102BF000831203136408DF0004300310DF0DFF3E6F
:102C0000031DFD2D0A30E6000030E7005C08831349
:102C1000E000E1016008E4006108E5000A168A119D
:102C2000A5270A168A118312031364085F07DC00C4
:102C30005C088313DD005D08E5000630E4006830C1
:102C40000A128A11C4210A168A110800DC003C30DD
:102C50005C0203182C2E2D2E6C2E0A30E60000305C
:102C6000E7005C088313DD00DE015D08E4005E0818
:102C7000E5000A128A1134220A168A1183120313FC
:102C80006408DF0004300310DF0DFF3E031D432EF8
:102C90000A30E6000030E7005C088313E000E10141
:102CA0006008E4006108E5000A168A11A5270A16E3
:102CB0008A118312031364085F07DC005C08831326
:102CC000DD005D08E500E4010314E40D68300A123C
:102CD0008A11C4210A168A110800DC00DC08031DD1
:102CE000722EB62E20305C020318772E782EB62E68
:102CF0000A30E6000030E7005C088313DD00DE01E7
:102D00005D08E4005E08E5000A128A1134220A1602
:102D10008A11831203136408DF0004300310DF0DEF
:102D2000FF3E031D8E2E0A30E6000030E7005C08EF
:102D30008313E000E1016008E4006108E5000A1681
:102D40008A11A5270A168A118312031364085F07E4
:102D5000DC005C088313DD005D08E5000430E4005E
:102D600068300A128A11C4210A168A110800DC0090
:102D7000DC08031DBC2E002F0D305C020318C12E91
:102D8000C22E002F0A30E6000030E7005C088313F3
:102D9000DD00DE015D08E4005E08E5000A128A112C
:102DA00034220A168A11831203136408DF000430E8
:102DB0000310DF0DFF3E031DD82E0A30E600003061
:102DC000E7005C088313E000E1016008E4006108AB
:102DD000E5000A168A11A5270A168A118312031321
:102DE00064085F07DC005C088313DD005D08E50014
:102DF0000530E40068300A128A11C4210A168A11CB
:102E0000080068086704660465040319082F092F81
:102E10004D2FE9010314E90D1A2F0130EA000310C8
:102E2000E50DE60DE70DE80DEA0B0F2F0130EA0086
:102E30006A08E907E81F1D2F1E2F0D2F680864027E
:102E4000031D2C2F67086302031D2C2F66086202E6
:102E5000031D2C2F65086102031C2F2F302F3E2FDE
:102E60006508E1026608031C660FE2026708031C9E
:102E7000670FE3026808031C680FE40201300310C7
:102E8000E80CE70CE60CE50CFF3E031D3F2F01307C
:102E9000E902031D4C2F4D2F1E2F4E2F0800DD0081
:102EA00018305D020318552F562FA42F0A30E60064
:102EB0000030E7005D088313DE00DF015E08E400F8
:102EC0005F08E5000A128A1134220A168A11831259
:102ED00003136408E00004300310E00DFF3E031DFF
:102EE0006C2F0A30E6000030E7005D088313E10034
:102EF000E2016108E4006208E5000A168A11A527CC
:102F00000A168A118312031364086007DD00023079
:102F1000E40068300A128A112B270A168A118312DC
:102F20000313DC004030DE005E08DC055C08831320
:102F30005D04DE005E08E5000230E40068300A123D
:102F40008A11C4210A168A110800031000300318E0
:102F50000130E800E51FAD2FAE2FB62FE409E509DB
:102F6000E40A0319E50AE8010314E80DE71FB92F85
:102F7000BA2FBF2FE609E709E60A0319E70A67082F
:102F800066040319C42FC52FF52FE9010314E90DB9
:102F9000D42F01300310E60DE70DFF3E031DCA2FAD
:102FA0000130EA006A08E907E71FD72FD82FC92F99
:102FB00067086502031DDE2F66086402031CE12F0B
:102FC000E22FE82F6608E4026708031CE503E50228
:102FD00001300310E70CE60CFF3E031DE92F013022
:102FE000E902031DF42FF52FD82FE808031DF92F50
:102FF000FE2FE409E509E40A0319E50AFF2F08009A
:02400E00323F3F
:00000001FF
