:100000000A168A112C2C00308A000408840A820700
:100010000034573445344434003454345534453472
:10002000003446345234493400344D344F344E3465
:100030000034533455344E34003453344134543442
:0A00400000345434483455340034C1
:10004E0083120313051185152C28071C2F28302821
:10005E002C28A228A228871C35283628872800306D
:10006E000A168A11AE240A128A118312031321086A
:10007E00BC00BD01BE01BF013F08B9003E08B8007B
:10008E003D08B7003C08B6000230C0004008BA0078
:10009E000A128A156E250A128A110030F3000030FA
:1000AE00F2002730F1001030F0000A168A11FB25FD
:1000BE000A128A1101300A168A11AE240A128A1106
:1000CE0020300A168A1161240A128A1100300A168B
:1000DE008A11AE240A128A1120300A168A1161245E
:1000EE000A128A110030F3000030F2002730F100BE
:1000FE001030F0000A168A11FB250A128A11872881
:10010E008312031387188C288D28A2288F288F28F6
:10011E00871C922893288F289428173021020318C1
:10012E0099289A289F280130BC003C08A107A228D4
:10013E00A101A228A2280718A528A6283228A72898
:10014E0000300A168A11AE240A128A118312031382
:10015E002108BC00BD01BE01BF013F08B9003E0829
:10016E00B8003D08B7003C08B6000230C000400899
:10017E00BA000A128A156E250A128A11C62883122F
:10018E000313071CCB28CC28C6283E293E29871CE2
:10019E00D128D228232903300A168A11AE240A1236
:1001AE008A11831203132208BC00BD01BE01BF01D8
:1001BE003F08B9003E08B8003D08B7003C08B6003D
:1001CE000230C0004008BA000A128A156E250A12C3
:1001DE008A110030F3000030F2002730F1001030A9
:1001EE00F0000A168A11FB250A128A1104300A162B
:1001FE008A11AE240A128A1120300A168A1161243D
:10020E000A128A1103300A168A11AE240A128A11B2
:10021E0020300A168A1161240A128A110030F30066
:10022E000030F2002730F1001030F0000A168A116B
:10023E00FB250A128A1123298312031387182829F2
:10024E0029293E292B292B29871C2E292F292B2999
:10025E0030293B3022020318352936293B2901303B
:10026E00BC003C08A2073E29A2013E293E290718E0
:10027E0041294229CE28432903300A168A11AE2479
:10028E000A128A11831203132208BC00BD01BE019B
:10029E00BF013F08B9003E08B8003D08B7003C0852
:1002AE00B6000230C0004008BA000A128A156E2548
:1002BE000A128A11622983120313071C67296829FF
:1002CE006229DA29DA29871C6D296E29BF290630A1
:1002DE000A168A11AE240A128A11831203132308F6
:1002EE00BC00BD01BE01BF013F08B9003E08B80009
:1002FE003D08B7003C08B6000230C0004008BA0006
:10030E000A128A156E250A128A110030F300003087
:10031E00F2002730F1001030F0000A168A11FB258A
:10032E000A128A1107300A168A11AE240A128A118D
:10033E0020300A168A1161240A128A1106300A1612
:10034E008A11AE240A128A1120300A168A116124EB
:10035E000A128A110030F3000030F2002730F1004B
:10036E001030F0000A168A11FB250A128A11BF29D5
:10037E00831203138718C429C529DA29C729C72967
:10038E00871CCA29CB29C729CC293B302302031845
:10039E00D129D229D7290130BC003C08A307DA297C
:1003AE00A301DA29DA290718DD29DE296A29DF29CE
:1003BE0006300A168A11AE240A128A11831203130A
:1003CE002308BC00BD01BE01BF013F08B9003E08B5
:1003DE00B8003D08B7003C08B6000230C000400827
:1003EE00BA000A128A156E250A128A11FE29831284
:1003FE000313071C032A042AFE29792A792A871C4B
:10040E00092A0A2A5B2A14300A168A11AE240A1205
:10041E008A11831203132408BC00BD01BE01BF0163
:10042E003F08B9003E08B8003D08B7003C08B600CA
:10043E000230C0004008BA000A128A156E250A1250
:10044E008A110030F3000030F2002730F100103036
:10045E00F0000A168A11FB250A128A1115300A16A7
:10046E008A11AE240A128A1120300A168A116124CA
:10047E000A128A1114300A168A11AE240A128A112F
:10048E0020300A168A1161240A128A110030F300F4
:10049E000030F2002730F1001030F0000A168A11F9
:1004AE00FB250A128A115B2A831203138718602A0E
:1004BE00612A792A632A632A871C662A672A632A95
:1004CE00682A1F30240203186D2A6E2A732A0130FF
:1004DE00BC003C08A407792AA4010314A40D792AB0
:1004EE00792A792A07187C2A7D2A062A7E2A143030
:1004FE000A168A11AE240A128A11831203132408D3
:10050E00BC00BD01BE01BF013F08B9003E08B800E6
:10051E003D08B7003C08B6000230C0004008BA00E3
:10052E000A128A156E250A128A119D2A8312031346
:10053E00071CA22AA32A9D2A182B182B871CA82A2F
:10054E00A92AFA2A17300A168A11AE240A128A111B
:10055E00831203132C08BC00BD01BE01BF013F086E
:10056E00B9003E08B8003D08B7003C08B60002309E
:10057E00C0004008BA000A128A156E250A128A11A6
:10058E000030F3000030F2002730F1001030F000A0
:10059E000A168A11FB250A128A1118300A168A11B8
:1005AE00AE240A128A1120300A168A1161240A1208
:1005BE008A1117300A168A11AE240A128A112030B7
:1005CE000A168A1161240A128A110030F3000030D3
:1005DE00F2002730F1001030F0000A168A11FB25C8
:1005EE000A128A11FA2A831203138718FF2A002B84
:1005FE00182B022B022B871C052B062B022B072BED
:10060E000C302C0203180C2B0D2B122B0130BC00BE
:10061E003C08AC07182BAC010314AC0D182B182B8F
:10062E00182B07181B2B1C2BA52A1D2B17300A164F
:10063E008A11AE240A128A11831203132C08BC00ED
:10064E00BD01BE01BF013F08B9003E08B8003D081C
:10065E00B7003C08B6000230C0004008BA000A12CB
:10066E008A156E250A128A113C2B83120313071C5E
:10067E00412B422B3C2BB42BB42B871C472B482BE6
:10068E00992B1A300A168A11AE240A128A11831275
:10069E0003133308BC00BD01BE01BF013F08B90002
:1006AE003E08B8003D08B7003C08B6000230C00056
:1006BE004008BA000A128A156E250A128A110030F5
:1006CE00F3000030F2002730F1001030F0000A166F
:1006DE008A11FB250A128A111B300A168A11AE24C2
:1006EE000A128A1120300A168A1161240A128A11FE
:1006FE001A300A168A11AE240A128A1120300A16EE
:10070E008A1161240A128A110030F3000030F200BF
:10071E002730F1001030F0000A168A11FB250A125C
:10072E008A11992B8312031387189E2B9F2BB42BA0
:10073E00A12BA12B871CA42BA52BA12BA62B6430A0
:10074E0033020318AB2BAC2BB12B0130BC003C0891
:10075E00B307B42BB301B42BB42B0718B72BB82B9C
:10076E00442BB92B1A300A168A11AE240A128A119A
:10077E00831203133308BC00BD01BE01BF013F0845
:10078E00B9003E08B8003D08B7003C08B60002307C
:10079E00C0004008BA000A128A156E250A128A1184
:1007AE00D82B83120313071CDD2BDE2BD82BF32D36
:1007BE00F32D871CE32BE42BDB2D2708073A031DB3
:1007CE00E92BEA2B292C1F300A168A11AE240A12A5
:1007DE008A1111300A168A1137250A128A11003031
:1007EE00F3000030F2002730F1001030F0000A164E
:1007FE008A11FB250A128A111F300A168A11AE249D
:10080E000A128A1120300A168A1161240A128A11DC
:10081E0020300A168A1161240A128A1120300A1613
:10082E008A1161240A128A110030F3000030F2009E
:10083E002730F1001030F0000A168A11FB250A123B
:10084E008A11F32D831203132708013A031D302C4E
:10085E00312C702C1F300A168A11AE240A128A11FE
:10086E000D300A168A1137250A128A110030F3004C
:10087E000030F2002730F1001030F0000A168A1115
:10088E00FB250A128A111F300A168A11AE240A128B
:10089E008A1120300A168A1161240A128A11203018
:1008AE000A168A1161240A128A1120300A168A1138
:1008BE0061240A128A110030F3000030F200273052
:1008CE00F1001030F0000A168A11FB250A128A1167
:1008DE00F32D831203132708023A031D772C782C6D
:1008EE00B72C1F300A168A11AE240A128A1105304F
:1008FE000A168A1137250A128A110030F3000030C9
:10090E00F2002730F1001030F0000A168A11FB2594
:10091E000A128A111F300A168A11AE240A128A117F
:10092E0020300A168A1161240A128A1120300A1602
:10093E008A1161240A128A1120300A168A11612442
:10094E000A128A110030F3000030F2002730F10055
:10095E001030F0000A168A11FB250A128A11F32DA7
:10096E00831203132708033A031DBE2CBF2CFE2C43
:10097E001F300A168A11AE240A128A1101300A1685
:10098E008A1137250A128A110030F3000030F20066
:10099E002730F1001030F0000A168A11FB250A12DA
:1009AE008A111F300A168A11AE240A128A112030BB
:1009BE000A168A1161240A128A1120300A168A1127
:1009CE0061240A128A1120300A168A1161240A1231
:1009DE008A110030F3000030F2002730F1001030A1
:1009EE00F0000A168A11FB250A128A11F32D8312C2
:1009FE0003132708043A031D052D062D452D1F3020
:100A0E000A168A11AE240A128A1119300A168A1190
:100A1E0037250A128A110030F3000030F200273019
:100A2E00F1001030F0000A168A11FB250A128A1105
:100A3E001F300A168A11AE240A128A1120300A16A5
:100A4E008A1161240A128A1120300A168A11612431
:100A5E000A128A1120300A168A1161240A128A118A
:100A6E000030F3000030F2002730F1001030F000BB
:100A7E000A168A11FB250A128A11F32D831203130B
:100A8E002708053A031D4C2D4D2D8C2D1F300A16AF
:100A9E008A11AE240A128A1109300A168A113725D4
:100AAE000A128A110030F3000030F2002730F100F4
:100ABE001030F0000A168A11FB250A128A111F3017
:100ACE000A168A11AE240A128A1120300A168A11C9
:100ADE0061240A128A1120300A168A1161240A1220
:100AEE008A1120300A168A1161240A128A110030E6
:100AFE00F3000030F2002730F1001030F0000A163B
:100B0E008A11FB250A128A11F32D8312031327086B
:100B1E00063A031D932D942DF32D1F300A168A11BC
:100B2E00AE240A128A1115300A168A1137250A12B6
:100B3E008A110030F3000030F2002730F10010303F
:100B4E00F0000A168A11FB250A128A111F300A16A6
:100B5E008A11AE240A128A1120300A168A116124D3
:100B6E000A128A1120300A168A1161240A128A1179
:100B7E0020300A168A1161240A128A110030F300FD
:100B8E000030F2002730F1001030F0000A168A1102
:100B9E00FB250A128A11F32DF32DF32DF32DF32DD0
:100BAE00F32DF32DF32DDB2D83120313871CE02D74
:100BBE00E12DDB2DE22D07302702031CE72DE82D5A
:100BCE00EC2DA7010314A70DF32D0130BC003C083A
:100BDE00A707F32DF32DF32D831203130718F82D0A
:100BEE00F92DE02B8718FC2DFD2DC22F2708073A73
:100BFE00031D022E032E422E1F300A168A11AE241A
:100C0E000A128A1111300A168A1137250A128A1110
:100C1E000030F3000030F2002730F1001030F00009
:100C2E000A168A11FB250A128A111F300A168A111A
:100C3E00AE240A128A1120300A168A1161240A1271
:100C4E008A1120300A168A1161240A128A11203064
:100C5E000A168A1161240A128A110030F30000303C
:100C6E00F2002730F1001030F0000A168A11FB2531
:100C7E000A128A11C22F831203132708013A031D89
:100C8E00492E4A2E892E1F300A168A11AE240A12B8
:100C9E008A110D300A168A1137250A128A11003070
:100CAE00F3000030F2002730F1001030F0000A1689
:100CBE008A11FB250A128A111F300A168A11AE24D8
:100CCE000A128A1120300A168A1161240A128A1118
:100CDE0020300A168A1161240A128A1120300A164F
:100CEE008A1161240A128A110030F3000030F200DA
:100CFE002730F1001030F0000A168A11FB250A1277
:100D0E008A11C22F831203132708023A031D902E55
:100D1E00912ED02E1F300A168A11AE240A128A1175
:100D2E0005300A168A1137250A128A110030F3008F
:100D3E000030F2002730F1001030F0000A168A1150
:100D4E00FB250A128A111F300A168A11AE240A12C6
:100D5E008A1120300A168A1161240A128A11203053
:100D6E000A168A1161240A128A1120300A168A1173
:100D7E0061240A128A110030F3000030F20027308D
:100D8E00F1001030F0000A168A11FB250A128A11A2
:100D9E00C22F831203132708033A031DD72ED82E12
:100DAE00E52E1F300A168A11AE240A128A1101305E
:100DBE000A168A1137250A128A11C22F83120313BB
:100DCE002708043A031DEC2EED2E2C2F1F300A1689
:100DDE008A11AE240A128A1119300A168A11372581
:100DEE000A128A110030F3000030F2002730F100B1
:100DFE001030F0000A168A11FB250A128A111F30D4
:100E0E000A168A11AE240A128A1120300A168A1185
:100E1E0061240A128A1120300A168A1161240A12DC
:100E2E008A1120300A168A1161240A128A110030A2
:100E3E00F3000030F2002730F1001030F0000A16F7
:100E4E008A11FB250A128A11C22F83120313270857
:100E5E00053A031D332F342F732F1F300A168A11B4
:100E6E00AE240A128A1109300A168A1137250A127F
:100E7E008A110030F3000030F2002730F1001030FC
:100E8E00F0000A168A11FB250A128A111F300A1663
:100E9E008A11AE240A128A1120300A168A11612490
:100EAE000A128A1120300A168A1161240A128A1136
:100EBE0020300A168A1161240A128A110030F300BA
:100ECE000030F2002730F1001030F0000A168A11BF
:100EDE00FB250A128A11C22F831203132708063A22
:100EEE00031D7A2F7B2FC22F1F300A168A11AE24B4
:100EFE000A128A1115300A168A1137250A128A111A
:100F0E000030F3000030F2002730F1001030F00016
:100F1E000A168A11FB250A128A111F300A168A1127
:100F2E00AE240A128A1120300A168A1161240A127E
:100F3E008A1120300A168A1161240A128A11203071
:100F4E000A168A1161240A128A110030F300003049
:100F5E00F2002730F1001030F0000A168A11FB253E
:100F6E000A128A11C22FC22FC22FC22FC22FC22F16
:100F7E00C22FC22FC22F83120313071CC72FC82FD5
:100F8E00C22FC92F23080A168A114C270A128A115A
:100F9E008312031322080A168A1167260A128A116F
:100FAE008312031321080A128A154A200A128A1183
:100FBE008312031327080A168A1193240A128A1120
:100FCE008312031324080A168A11FE260A128A11A6
:100FDE00831203132C080A168A11B0260A128A11DC
:100FEE008312031333080A128A1500200A128A117B
:100FFE000800F900643079020318062807284928EA
:10100E000A30F0000030F100790883120313B600A5
:10101E00B7013608F2003708F3000A128A15552276
:10102E000A128A15700883120313B80004300310D5
:10103E00B80DFF3E031D1E280A30F0000030F100EF
:10104E007908B900BA013908F2003A08F3000A1219
:10105E008A15A8200A128A157008831203133807FE
:10106E00BB003B08F9000630B6003608F0007908E0
:10107E00B7003708F10068300A128A15E6210A1205
:10108E008A1549280800FC0018307C0203185028E5
:10109E005128A7280A30F0000030F1007C08831296
:1010AE000313B600B7013608F2003708F3000A1230
:1010BE008A1555220A128A15700883120313B80076
:1010CE0004300310B80DFF3E031D68280A30F000EF
:1010DE000030F1007C08B900BA013908F2003A0874
:1010EE00F3000A128A15A8200A128A1570088312B4
:1010FE0003133807BB003B08FC000230B60036086D
:10110E00F00068300A128A15C9220A128A15831253
:10111E000313B7003708FB004030B6003608FB0556
:10112E000230B6003608F0007B087C04B7003708A2
:10113E00F10068300A128A15E6210A128A15A728CC
:10114E000800F601F31FAC28AD28B628F209F30902
:10115E00F20A0319F30AF6010314F60DB628F11F6D
:10116E00B928BA28C028F009F109F00A0319F10AC2
:10117E00C028710870040319C528C628FC28F5017B
:10118E000314F50DD62801300310F00DF10DFF3EBE
:10119E00031DCB280130F4007408F507D628F11F83
:1011AE00D928DA28CA28DC28DC2871087302031D26
:1011BE00E22870087202031CE528E628ED28700864
:1011CE00F2027108031CF303F302ED280130031041
:1011DE00F10CF00CFF3E031DEE280130F502031D4D
:1011EE00F928FA28DC28FC28FC287608031D00299B
:1011FE000629F209F309F20A0319F30A06297308FC
:10120E00F101F1077208F001F0070D290800F00155
:10121E0068300A128A15C9220A128A15FB007B0849
:10122E0083120313B800B81F1D291E295429F0017B
:10123E0038087F39FB007B08F10068300A128A15E6
:10124E00E6210A128A1583120313B601B701013083
:10125E003702F43003193602031C3629372939298F
:10126E00542954290730FC007D30FB00FB0B3D292F
:10127E00FC0B3D29013083120313B6070318B70A7E
:10128E000030B70701303702F43003193602031C61
:10129E00512952293929542954290230FB007B083F
:1012AE00F00068300A128A15C9220A128A15FC004B
:1012BE007C0883120313B800381F66296729772923
:1012CE000230FB007B08F0003808BF39FC007C08B8
:1012DE00F10068300A128A15E6210A128A1577295A
:1012EE0008000030FC000030FB000030FA00003037
:1012FE00F900730872047104700403198729882990
:10130E00DC29FD010314FD0D9A290130F8000310AC
:10131E00F00DF10DF20DF30DF80B8E290130F800E2
:10132E007808FD079A29F31F9D299E298C29A0294B
:10133E00A0290130F8000310F90DFA0DFB0DFC0D7C
:10134E00F80BA22973087702031DB72972087602DB
:10135E00031DB72971087502031DB72970087402A1
:10136E00031CBA29BB29CB297008F4027108031C8F
:10137E00710FF5027208031C720FF6027308031C3C
:10138E00730FF7027914CB2901300310F30CF20C12
:10139E00F10CF00CFF3E031DCC290130FD02031DA4
:1013AE00D929DA29A029DC29DC297C08F3007B085D
:1013BE00F2007A08F1007908F000E5290800F30040
:1013CE0083120313A001831603131114EE291118AF
:1013DE00F129F229EE29F3297308F2007207FE397A
:1013EE00831203139300FB29831603131419002A87
:1013FE00012AFB29111F042A052A132A1115072A6F
:10140E0011190A2A0B2A072A0C2A83120313A00188
:10141E000314A00D542A542A700883129300172A1D
:10142E008316031314191C2A1D2A172A111F202A8A
:10143E00212A2F2A1115232A1119262A272A232A6F
:10144E00282A83120313A0010314A00D542A542A30
:10145E00710883129300332A831603131419382A42
:10146E00392A332A111F3C2A3D2A4B2A11153F2AAD
:10147E001119422A432A3F2A442A83120313A00138
:10148E000314A00D542A542A11154D2A1119502A4D
:10149E00512A4D2A83120313A0010800F601F11FF1
:1014AE00592A5A2A632AF009F109F00A0319F10A96
:1014BE00F6010314F60D632AF31F662A672A712AB2
:1014CE00F209F309F20A0319F30A0130F400740861
:1014DE00F606712AF701F801710870040319782ACB
:1014EE00792AB72AF5010314F50D892A0130031064
:1014FE00F00DF10DFF3E031D7E2A0130F40074083D
:10150E00F507892AF11F8C2A8D2A7D2A8F2A8F2A88
:10151E0001300310F70DF80DFF3E031D902A7108E0
:10152E007302031D9C2A70087202031C9F2AA02AB4
:10153E00A82A7008F2027108031CF303F302771451
:10154E00A82A01300310F10CF00CFF3E031DA92A4E
:10155E000130F502031DB42AB52A8F2AB72AB72AFD
:10156E007608031DBB2AC12AF709F809F70A0319E1
:10157E00F80AC12A7808F101F1077708F001F0079F
:10158E00C82A0800FA0083120313A001831603135E
:10159E001114D12A1118D42AD52AD12AD62A7A087A
:1015AE00F1007107FE39831203139300DE2A8316AE
:1015BE0003131419E32AE42ADE2A111FE72AE82A64
:1015CE00F72A1115EA2A1119ED2AEE2AEA2AEF2A2C
:1015DE0083120313A0010314A00D0030982B982B37
:1015EE00700883129300FB2A831603131419002B21
:1015FE00012BFB2A111F042B052B142B1115072B66
:10160E0011190A2B0B2B072B0C2B83120313A00182
:10161E000314A00D0030982B982B9114162B9118B3
:10162E00192B1A2B162B1B2B03147A0D8312031353
:10163E009300212B831603131419262B272B212BF2
:10164E00111F2A2B2B2B3A2B11152D2B1119302B49
:10165E00312B2D2B322B83120313A0010314A00D5B
:10166E000030982B982B91150030F8000030F700C1
:10167E002730F6001030F500772B0130F1000030E6
:10168E00F2000030F3000030F4007108F502720829
:10169E00031C720F532B542BF6027308031C730F8B
:1016AE00592B5A2BF7027408031C740F5F2B602BF7
:1016BE00F8027808770476047504031D672B682BEF
:1016CE00772B11156A2B11196D2B6E2B6A2B6F2B25
:1016DE0083120313A0010314A00D0030982B982B36
:1016EE0083160313141C7C2B7D2B442B7E2B831211
:1016FE0003131308F1007108F900831603139116F2
:10170E001116892B111A8C2B8D2B892B11158F2BC2
:10171E001119922B932B8F2B83120313A00179088F
:10172E00982B080083120313051585110718A02B9B
:10173E00A12BA72B0A128A1127200A128A15992B80
:10174E000A168A11EC240A128A1583120313C10099
:10175E004108A3000A168A1111250A128A1583124E
:10176E000313C1004108A2000A168A11D3250A12DA
:10177E008A1583120313C1004108A1000A168A11AB
:10178E0020240A128A1583120313C1004108A700F0
:10179E000A168A11AC250A128A1583120313C10088
:1017AE004108A4000A168A1185250A128A15831289
:1017BE000313C1004108AC000A168A115E250A12F5
:1017CE008A1583120313C1004108B30000300A16B4
:1017DE008A11AE240A128A15831203132108C1003E
:1017EE00C201C301C4014408B9004308B80042084D
:1017FE00B7004108B6000230C5004508BA000A120B
:10180E008A156E250A128A1502300A168A11AE241E
:10181E000A128A153A300A168A1161240A128A159A
:10182E0003300A168A11AE240A128A158312031384
:10183E002208C100C201C301C4014408B900430813
:10184E00B8004208B7004108B6000230C50045088E
:10185E00BA000A128A156E250A128A1505300A1662
:10186E008A11AE240A128A153A300A168A11612498
:10187E000A128A1506300A168A11AE240A128A1521
:10188E00831203132308C100C201C301C40144081B
:10189E00B9004308B8004208B7004108B60002304C
:1018AE00C5004508BA000A128A156E250A128A1555
:1018BE00831203132708073A031D662C672C742C1A
:1018CE001F300A168A11AE240A128A1511300A1612
:1018DE008A1137250A128A15F82C8312031327084A
:1018EE00013A031D7B2C7C2C892C1F300A168A1181
:1018FE00AE240A128A150D300A168A1137250A12DD
:10190E008A15F82C831203132708023A031D902C14
:10191E00912C9E2C1F300A168A11AE240A128A159B
:10192E0005300A168A1137250A128A15F82C8312E9
:10193E0003132708033A031DA52CA62CB32C1F3026
:10194E000A168A11AE240A128A1501300A168A1155
:10195E0037250A128A15F82C831203132708043A26
:10196E00031DBA2CBB2CC82C1F300A168A11AE24AC
:10197E000A128A1519300A168A1137250A128A1583
:10198E00F82C831203132708053A031DCF2CD02CF5
:10199E00DD2C1F300A168A11AE240A128A15093060
:1019AE000A168A1137250A128A15F82C8312031388
:1019BE002708063A031DE42CE52CF82C1F300A16D6
:1019CE008A11AE240A128A1515300A168A11372585
:1019DE000A128A15F82CF82CF82CF82CF82CF82C66
:1019EE00F82C14300A168A11AE240A128A158312A4
:1019FE0003132408C100C201C301C4014408B90085
:101A0E004308B8004208B7004108B6000230C500CE
:101A1E004508BA000A128A156E250A128A15163062
:101A2E000A168A11AE240A128A152F300A168A1146
:101A3E0061240A128A1517300A168A11AE240A1268
:101A4E008A15831203132C08C100C201C301C401FD
:101A5E004408B9004308B8004208B7004108B60070
:101A6E000230C5004508BA000A128A156E250A1200
:101A7E008A1519300A168A11AE240A128A152F30C9
:101A8E000A168A1161240A128A151A300A168A1148
:101A9E00AE240A128A15831203133308C100C20141
:101AAE00C301C4014408B9004308B8004208B70096
:101ABE004108B6000230C5004508BA000A128A1560
:101ACE006E250A128A15992B992B992B08000A302C
:101ADE00831203133A02031C752D762DB22D54304A
:101AEE00F3000B30F200E430F1000030F000390862
:101AFE00F7003808F6003708F5003608F4000A1625
:101B0E008A11A4270A128A15730883120313B900C7
:101B1E007208B8007108B7007008B6003B30F300C9
:101B2E009A30F200CA30F1000030F0003908F700A8
:101B3E003808F6003708F5003608F4000A128A1540
:101B4E0078210A128A157008303E0A168A1161240D
:101B5E000A128A15B22D0930831203133A02031C9E
:101B6E00B92DBA2DF62D3B30F3009A30F200CA3063
:101B7E00F1000030F0003908F7003808F600370899
:101B8E00F5003608F4000A168A11A4270A128A15DF
:101B9E00730883120313B9007208B8007108B700F6
:101BAE007008B6000530F300F530F200E130F100B8
:101BBE000030F0003908F7003808F6003708F50055
:101BCE003608F4000A128A1578210A128A1570084E
:101BDE00303E0A168A1161240A128A15F62D083033
:101BEE00831203133A02031CFD2DFE2D3A2E0530EF
:101BFE00F300F530F200E130F1000030F00039086A
:101C0E00F7003808F6003708F5003608F4000A1613
:101C1E008A11A4270A128A15730883120313B900B6
:101C2E007208B8007108B7007008B6000030F300F3
:101C3E009830F2009630F1008030F0003908F7004D
:101C4E003808F6003708F5003608F4000A128A152F
:101C5E0078210A128A157008303E0A168A116124FC
:101C6E000A128A153A2E0730831203133A02031C06
:101C7E00412E422E7E2E0030F3009830F200963028
:101C8E00F1008030F0003908F7003808F600370808
:101C9E00F5003608F4000A168A11A4270A128A15CE
:101CAE00730883120313B9007208B8007108B700E5
:101CBE007008B6000030F3000F30F2004230F10031
:101CCE004030F0003908F7003808F6003708F50004
:101CDE003608F4000A128A1578210A128A1570083D
:101CEE00303E0A168A1161240A128A157E2E06309B
:101CFE00831203133A02031C852E862EC22E003049
:101D0E00F3000F30F2004230F1004030F00039089D
:101D1E00F7003808F6003708F5003608F4000A1602
:101D2E008A11A4270A128A15730883120313B900A5
:101D3E007208B8007108B7007008B6000030F300E2
:101D4E000130F2008630F100A030F0003908F700C3
:101D5E003808F6003708F5003608F4000A128A151E
:101D6E0078210A128A157008303E0A168A116124EB
:101D7E000A128A15C22E0530831203133A02031C6F
:101D8E00C92ECA2E062F0030F3000130F200863025
:101D9E00F100A030F0003908F7003808F6003708D7
:101DAE00F5003608F4000A168A11A4270A128A15BD
:101DBE00730883120313B9007208B8007108B700D4
:101DCE007008B6000030F3000030F2002730F1004A
:101DDE001030F0003908F7003808F6003708F50023
:101DEE003608F4000A128A1578210A128A1570082C
:101DFE00303E0A168A1161240A128A15062F043003
:101E0E00831203133A02031C0D2F0E2F4A2F00309C
:101E1E00F3000030F2002730F1001030F0003908E6
:101E2E00F7003808F6003708F5003608F4000A16F1
:101E3E008A11A4270A128A15730883120313B90094
:101E4E007208B8007108B7007008B6000030F300D1
:101E5E000030F2000330F100E830F0003908F700EE
:101E6E003808F6003708F5003608F4000A128A150D
:101E7E0078210A128A157008303E0A168A116124DA
:101E8E000A128A154A2F0330831203133A02031CD7
:101E9E00512F522F8E2F0030F3000030F2000330FE
:101EAE00F100E830F0003908F7003808F60037087E
:101EBE00F5003608F4000A168A11A4270A128A15AC
:101ECE00730883120313B9007208B8007108B700C3
:101EDE007008B6000030F3000030F2000030F10060
:101EEE006430F0003908F7003808F6003708F500BE
:101EFE003608F4000A128A1578210A128A1570081B
:101F0E00303E0A168A1161240A128A158E2F02306B
:101F1E00831203133A02031C952F962FD22F0030F3
:101F2E00F3000030F2000030F1006430F0003908A8
:101F3E00F7003808F6003708F5003608F4000A16E0
:101F4E008A11A4270A128A15730883120313B90083
:101F5E007208B8007108B7007008B6000030F300C0
:101F6E000030F2000030F1000A30F0003908F700BE
:101F7E003808F6003708F5003608F4000A128A15FC
:101F8E0078210A128A157008303E0A168A116124C9
:101F9E000A128A15D22F831203133A08031DD82F63
:101FAE00FF2F0030F3000030F2000030F1000A3055
:101FBE00F0003908F7003808F6003708F500360843
:101FCE00F4000A168A11A4270A128A1573088312BE
:101FDE000313B9007208B8007108B7007008B60094
:101FEE003608303E0A168A1161240A128A15FF2F0E
:021FFE000800D9
:1028300064008001840A0406031900340406192C7C
:102840000330FB007B08F00068300A128A15C922A9
:102850000A168A112B2C080083132030840036308E
:102860000A168A1118240A168A1183010A168A1177
:102870002B2E83160313871507160C309300831233
:102880000313941514119410141094131413941624
:102890000800F300F201731C4E2C4F2C542C7008CE
:1028A000F1007108F207542C0310F00D0310F30C23
:1028B000F308031D5C2C5D2C4B2C5E2C7208602CE5
:1028C0000800F8008312031305147808860000300E
:1028D000F3000030F2000130F1002C30F0000A1655
:1028E0008A11FB250A168A110A168A11CB240A16A8
:1028F0008A110800F8008312031305107808860077
:102900000030F3000030F2000130F1002C30F00014
:102910000A168A11FB250A168A110A168A11CB2477
:102920000A168A110800F6007608031D982CAD2CB3
:102930000830760203189D2C9E2CAD2C0330F40039
:102940007408F0007608F5007508F10068300A1286
:102950008A15E6210A168A11AD2C0800FA001030FB
:102960007A020318B42CB52CBD2C7A08803E0A16C6
:102970008A117A240A168A11CA2C7A08EC3EF900C8
:102980007908FA007A08C03E0A168A117A240A16D3
:102990008A11CA2C08008312031385140030F30037
:1029A0000030F2000130F1002C30F0000A168A11DC
:1029B000FB250A168A118312031385100030F300D9
:1029C0000030F2000130F1002C30F0000A168A11BC
:1029D000FB250A168A110800F00168300A128A15D0
:1029E000C9220A168A11FB007B0883120313B60062
:1029F0000F303605FB000A30FC007C08F00036087A
:102A0000FD0004300310FD0CFF3E031D022D7D0868
:102A100007390A168A1149240A168A117B07102DD4
:102A20000800F0010314F00D68300A128A15C9225B
:102A30000A168A11FB007B0883120313B6000F30BD
:102A40003605FB000A30FC007C08F0003608FD006B
:102A500004300310FD0CFF3E031D292D7D080A16CE
:102A60008A1149240A168A117B07362D0800FB00BB
:102A7000FA014B2D7B0884000A128A1103200A16E2
:102A80008A110A168A1161240A168A110130F90086
:102A90007908FB074B2D7B08031D4F2D5D2D7B080F
:102AA00084000A128A1103200A168A110038031DB5
:102AB0005A2D5B2D3A2D5D2D5D2D08000630FB0053
:102AC0007B08F00068300A128A15C9220A168A119A
:102AD000FC007C0883120313B6000F303605FB00A0
:102AE0000A30FC007C08F0003608FD0004300310BA
:102AF000FD0CFF3E031D772D7D080A168A1149241F
:102B00000A168A117B07842D08000530FB007B081C
:102B1000F00068300A128A15C9220A168A11FC00D0
:102B20007C0883120313B6000F303605FB000A3011
:102B3000FC007C08F0003608FD0004300310FD0C9A
:102B4000FF3E031D9E2D7D080A168A1149240A1690
:102B50008A117B07AB2D08000430FB007B08F000D6
:102B600068300A128A15C9220A168A11FC007C08EC
:102B700083120313B6000F303605FB000A30FC0049
:102B80007C08F0003608FD0004300310FD0CFF3E09
:102B9000031DC52D7D080A168A1149240A168A11BB
:102BA0007B07D22D08000230FB007B08F000683064
:102BB0000A128A15C9220A168A11FC007C0883129F
:102BC0000313B6000F303605FB000A30FC007C080A
:102BD000F0003608FD0004300310FD0CFF3E031D1D
:102BE000EC2D7D0803390A168A1149240A168A1128
:102BF0007B07FA2D08007308720471047004031D2A
:102C0000022E032E052E2A2E2A2E0130F40000302B
:102C1000F5000030F6000030F7007408F002750887
:102C2000031C750F142E152EF1027608031C760F67
:102C30001A2E1B2EF2027708031C770F202E212E4E
:102C4000F3027308720471047004031D282E292EE8
:102C5000052E2A2E08000A168A1139240A168A110E
:102C60000A128A150E210A168A11063083160313DA
:102C70009F00850186011F30870083120313851191
:102C8000051101300A168A117A240A168A110230B7
:102C90000A168A117A240A168A1106300A168A112F
:102CA0007A240A168A110C300A168A117A240A1616
:102CB0008A1138300A168A117A240A168A110A12E1
:102CC0008A1599230A168A110A128A110028F90016
:102CD0003C30790203186D2E6E2EAF2E0A30F000B4
:102CE0000030F100790883120313B600B7013608EB
:102CF000F2003708F3000A128A1555220A168A11C3
:102D0000700883120313B80004300310B80DFF3E9F
:102D1000031D852E0A30F0000030F1007908B9005B
:102D2000BA013908F2003A08F3000A128A15A820FD
:102D30000A168A117008831203133807BB003B0878
:102D4000F900F0010314F00D7908B6003608F1001F
:102D500068300A128A15E6210A168A11AF2E080079
:102D6000F9007908031DB52EFD2E0D3079020318E8
:102D7000BA2EBB2EFD2E0A30F0000030F10079088B
:102D800083120313B600B7013608F2003708F300C8
:102D90000A128A1555220A168A1170088312031323
:102DA000B80004300310B80DFF3E031DD22E0A30C8
:102DB000F0000030F1007908B900BA013908F200DA
:102DC0003A08F3000A128A15A8200A168A11700818
:102DD000831203133807BB003B08F9000530B60027
:102DE0003608F0007908B7003708F10068300A1299
:102DF0008A15E6210A168A11FD2E0800F9007908C5
:102E0000031D032F4B2F203079020318082F092FA1
:102E10004B2F0A30F0000030F100790883120313C1
:102E2000B600B7013608F2003708F3000A128A1517
:102E300055220A168A11700883120313B800043051
:102E40000310B80DFF3E031D202F0A30F0000030A4
:102E5000F1007908B900BA013908F2003A08F30024
:102E60000A128A15A8200A168A1170088312031301
:102E70003807BB003B08F9000430B6003608F00004
:102E80007908B7003708F10068300A128A15E62180
:102E90000A168A114B2F0800FC003C307C020318F4
:102EA000522F532FA32F0A30F0000030F1007C087E
:102EB00083120313B600B7013608F2003708F30097
:102EC0000A128A1555220A168A11700883120313F2
:102ED000B80004300310B80DFF3E031D6A2F0A30FE
:102EE000F0000030F1007C08B900BA013908F200A6
:102EF0003A08F3000A128A15A8200A168A117008E7
:102F0000831203133807BB003B08FC00F001683054
:102F10000A128A15C9220A168A1183120313B600EF
:102F20003608FB008030B6003608FB05F0017B0850
:102F30007C04B6003608F10068300A128A15E621D2
:102F40000A168A11A32F0800730872047104700412
:102F50000319AB2FAC2FF62FF9010314F90DBE2F77
:102F60000130F8000310F00DF10DF20DF30DF80B28
:102F7000B22F0130F8007808F907BE2FF31FC12FD8
:102F8000C22FB02FC42FC42F73087702031DD22F76
:102F900072087602031DD22F71087502031DD22F0D
:102FA00070087402031CD52FD62FE52F7008F40289
:102FB0007108031C710FF5027208031C720FF602F0
:102FC0007308031C730FF702E52F01300310F30C95
:102FD000F20CF10CF00CFF3E031DE62F0130F9025C
:102FE000031DF32FF42FC42FF62FF62F7708F300CD
:102FF0007608F2007508F1007408F000FF2F080051
:02400E00323F3F
:00000001FF
